:100000000004002091010000497A000093010000E3
:100010009301000093010000930100009301000090
:100020009301000093010000930100009301000080
:100030009301000093010000930100003D9C00002B
:1000400093010000218A0000930100009301000049
:100050009301000093010000930100009301000050
:100060009301000093010000930100009301000040
:100070009301000093010000930100009301000030
:10008000559B0000930100009301000093010000C4
:100090009301000093010000930100009301000010
:1000A0009301000093010000930100009301000000
:1000B00093010000930100009301000093010000F0
:1000C00072B6244880F30888234880F30988022008
:1000D00080F31488BFF36F8F07F08CF806F000FEF2
:1000E0001E481F491B4A914202DA08600431FAE7B0
:1000F0001C49194A914202DA08600431FAE71A49A8
:100100001A4A1B4B9A4204DA086810600431043220
:10011000F8E700201749184A914202DA08600431D2
:10012000FAE707F06DF807F067F8144C144DAC428D
:1001300003DA216888470434F9E701F055FC114CD3
:10014000114DAC4203DA216888470434F9E70F49BE
:100150000847000000040020000C002055555555AC
:100160000000002000040020B0BF0000000C0020B0
:100170007C10002080100020101E0020C000000015
:10018000C0000000C0000000C0000000FD710000C1
:1001900096E700F000F8FEE7F0B544464D465646B7
:1001A0005F46F0B46B46CB60C3689D46F0BCA0468A
:1001B000A946B246BB46F0BD62B6281CA047002047
:1001C00007F0A4FBFEE707F003FB024A024B1360B3
:1001D000FEE7C04604ED00E000000080002934D0B6
:1001E0000123002210B488422CD301242407A14209
:1001F00004D2814202D209011B01F8E7E400A142C6
:1002000004D2814202D249005B00F8E7884201D360
:10021000401A1A434C08A04202D3001B5C08224338
:100220008C08A04202D3001B9C082243CC08A042A9
:1002300002D3001BDC082243002803D01B0901D095
:100240000909E3E7100010BC704701B5002000F079
:100250005FF802BD0029F8D003B5FFF7C1FF0EBC5F
:100260004243891A1847C046002941D010B40400FF
:100270004C40A44601230022002900D54942002811
:1002800000D5404288422CD301242407A14204D245
:10029000814202D209011B01F8E7E400A14204D225
:1002A000814202D249005B00F8E7884201D3401A3C
:1002B0001A434C08A04202D3001B5C0822438C085E
:1002C000A04202D3001B9C082243CC08A04202D3C8
:1002D000001BDC082243002803D01B0901D00909B8
:1002E000E3E710006446002C00D5404210BC704784
:1002F00001B5002000F00CF802BDC0460029F7D07F
:1003000003B5FFF7B3FF0EBC4243891A1847C04636
:100310007047C046002B11D1002A0FD1002900D10F
:10032000002802D00021C943080007B4024802A1F6
:100330004018029003BDC046D9FFFFFF03B46846D2
:1003400001B5029809F098FD019B9E4602B00CBCD5
:100350007047C046D0400B00D1409C46203AD34065
:10036000184352426346934018437047914003003C
:1003700090409C46203A9340194352426346D340F2
:100380001943704710B5002903D100F007F8203059
:1003900002E0080000F002F810BDC0461C21012355
:1003A0001B04984201D3000C10391B0A984201D358
:1003B000000A08391B09984201D30009043902A236
:1003C000105C40187047C04604030202010101019D
:1003D000000000000000000003B47146490840001E
:1003E0004900095E49008E4403BC704710B50028DF
:1003F00004D1002904D0023000F08AFB012010BD96
:10040000002000F085FBF9E70321034A13788B43B2
:100410000B4313707047C0461C110020030010B539
:100420000120032B03D8052901D80F2A00D910BDBC
:100430005C00E3185B005B181B0102489B185B0023
:10044000185AF4E7A8AE00000120704710B5FFF776
:10045000FBFF10BD012070470120704710B5FFF76A
:10046000FBFF10BD7047C04610B5FFF7FBFF10BD86
:1004700010B5134B82B01B7800900191002B0FD167
:100480006B465B79002B01D0002A10D1009800F058
:10049000B1FB04002000009900F092FF02B010BDF3
:1004A000009800F06BFC009900F08AFFF6E700F07E
:1004B00065FC04000100009800F070FBEAE7C0460C
:1004C0008810002010B50400038840880122000431
:1004D000A1881843FFF7CCFF2100FFF7B7FF10BD3D
:1004E00010B582B0010004000622684609F0EAFD5A
:1004F0000A4B00981B78002B09D100F07BFB009978
:1005000000F05EFF2100FFF7AFFF02B010BD00F06A
:1005100035FC009900F054FFF4E7C0468810002035
:100520000120704710B5FFF7FBFF10BD70B5040048
:1005300003884088A188000401221843FFF798FF30
:100540002100050005F084FC002801D1002070BDC9
:1005500021002800FFF782FF0028F7D021002800A3
:1005600005F04CFB0028F1D02100280005F022F90D
:100570000028EBD02100280005F0ECF80028E5D099
:100580002100280004F000FE0028DFD02100280010
:1005900005F09EFB0028D9D06379002B13D0124BB5
:1005A0009D4216D0114B9D4211D0033B9D420AD172
:1005B00000F058FA0120FFF7B5FF0D4807F0B2F937
:1005C00006F004F8C2E72000FFF744FFBFE700F0A1
:1005D00005FD00F047FA0020FFF7A4FF044807F0EC
:1005E000A1F906F01DF8B1E7017C0000037C0000D2
:1005F0001BB7000010B505F0DFFE03F09DFD00F015
:100600003DF8012004F030FA10BDC04610B500F0EE
:100610003BF8002004F028FA05F0D4FE10BDC046D7
:100620007047C046012070471022034B800701D558
:100630005A6270479A62FCE700A0044070B5051C3E
:10064000FFF7F0FF041E01D1200070BD281CFFF74A
:10065000EBFFF9E710B5044C06220421200008F056
:1006600083F81023A36210BD00A0044010B504005D
:10067000FFF7D6FF201CFFF7E1FF10BD10B50020EB
:10068000FFF7F4FF10BDC04610B505F043FDFFF7BE
:10069000EDFF10BD10B505F03DFD074B04001A78C5
:1006A000824207D0187005F02FFF044B186020001D
:1006B000FFF7DCFF10BDC046801000208410002032
:1006C00010B5041E16D0031FDBB2A02B13D90300F4
:1006D0002033DBB2072B23D903005B33DBB2022BC1
:1006E00013D95834E4B21A2C04D8124B6400E05ADF
:1006F00005F04EFD10BD05F067FD00280AD1200071
:1007000005F094FD00F0C4FBF4E7243CA0B205F032
:1007100023FDEFE7200005F0C3FD00F0B9FBEEE795
:100720000723034001209840C0B200F0CBFB00F04B
:10073000AFFBDFE7D8B1000010B5002814D0031FCD
:10074000DBB2A02B11D903002033DBB2072B15D964
:1007500003005B33DBB2022B0CD95830C0B21A282D
:1007600002D8002005F014FD10BD05F099FD00F041
:100770008FFBF9E7002005F0EFFCF5E707230340C6
:1007800001209840C0B200F0A5FB00F081FBEBE730
:1007900070B50C000500FFF793FF002C06D0013C5C
:1007A000BC20A4B207F0BEF8002CF8D12800FFF757
:1007B000C3FF70BD0300393B5A1E9341142110B58D
:1007C0005B4219405031FFF7E3FF10BD10B5002820
:1007D00000D110BD00F076FB00F05AFBF9E7C046EF
:1007E00010B5002800D110BD00F074FB00F050FBE4
:1007F000F9E7C0460A0470B5130F44790B2B13D8E0
:1008000078489B00C3589F46CEB209050D0F002CB7
:1008100000D18AE0280000F087F93000FFF7D6FF0A
:1008200005F078FCFFF722FF70BDCDB2F22D00D1AC
:10083000AEE0F32D00D1A4E0F12D00D19AE0002C20
:1008400000D0AFE0392D00D1C5E0674807F06AF865
:100850002800FFF771FFE7E70D052D0F120E0F2A95
:1008600000D92D01CEB2002C6ED0002D0CD033005B
:100870002033DBB22800072B02D9002E00D095E0F0
:1008800000F020FB00F004FB3000FFF719FFCBE77E
:100890000B059B0F50D0012BC6D10020002C01D09E
:1008A0008805800D05F074FCBEE79201920F1BD104
:1008B000002CB5D10B065B0F9B000807DBB2000FC5
:1008C0009840C0B2CA0604D50F229A40D3431843B9
:1008D000C0B20905890F022977D0032972D00129F6
:1008E00076D000F0E9F89BE78B059A0F002C3ED1FB
:1008F000012A00D894E70B065B0F9B000807DBB2C8
:10090000000F9840C0B2CA0604D50F229A40D343C4
:100910001843C0B20905890F022950D003294BD0D2
:10092000012946D000F024F97AE73000FFF758FF9C
:10093000280000F007F973E70020002C01D088059B
:10094000800D05F009FC6FE73000FFF7F5FE002D84
:1009500000D169E733002033DBB22800072B01D92F
:10096000002E3CD100F0B6FA00F092FA5CE7D20714
:10097000C1D455E7C904C80E002C0DD000F0D4F83E
:1009800052E7002C0BD0C904C80E00F0C1F84BE7A9
:10099000C904C80E002CF1D000F0D4F844E700F0F0
:1009A000ADF841E72800FFF78BFE3DE700F0A0FA25
:1009B00068E700F0D3F833E700F098F830E700F08C
:1009C000E1F82DE700F066F82AE700F07FF827E766
:1009D00000F068F824E7054806F0A4FF38E700F0C7
:1009E0008FFAC1E7A8B100003E490000983A000024
:1009F000037970B50400002B00D170BDFFF796FDA0
:100A00000028FAD02188607900F01AF9051C00F05E
:100A1000C3F800F03DF82000291CFFF7EBFE200092
:100A2000FFF75EFDE9E7C04610B50B0A84B0DBB204
:100A300000900191002B12D1009B02AC02936B46F7
:100A40009B88A380DBB2002B04D02000FFF73AFD87
:100A5000002802D02000FFF7CBFF04B010BD00F04B
:100A600057FAE9E710B500F03DFA05F045FC002023
:100A700005F072FB002005F08BFB00F049FA00F056
:100A800007FA10BD7047C04610B5FFF7FBFF10BD59
:100A90007047C04610B5FFF7F7FF014B187010BD47
:100AA000B110002010B5034C23781843FFF7ECFF7A
:100AB000207010BDB110002010B5034C23781840F1
:100AC000FFF7E2FF207010BDB110002010B5034CFD
:100AD00023785840FFF7D8FF207010BDB1100020D8
:100AE0007047C04610B5FFF7FBFF10BD10B5FFF70C
:100AF000F9FF014B187010BDB010002010B5002098
:100B0000FFF7F0FF014B187010BDC046B010002079
:100B10000123834010B5D8B2FFF7E4FF014B1870F2
:100B200010BDC046B01000200123834010B5044C16
:100B300020781843C0B2FFF7D5FF207010BDC04623
:100B4000B01000200123834010B5034C2078984357
:100B5000FFF7C8FF207010BDB010002010B5034C87
:100B600023781843FFF7BEFF207010BDB01000209F
:100B700010B5034C23781840FFF7B4FF207010BD68
:100B8000B010002010B5034C23785840FFF7AAFF9F
:100B9000207010BDB01000207047C04670B582B004
:100BA0006A46030490801B0E052B02D812790F2A87
:100BB00001D902B070BD1B01D218D3089BB25C00F2
:100BC000E4180B4B0125E418072313409D40002235
:100BD0000126EDB20B00D340A05C33405B424340A2
:100BE0002B405840A0540132032AF3D1E1E7C0461C
:100BF0008C10002030B583B06A46030490801B0E31
:100C00000020052B02D812790F2A01D903B030BD7C
:100C100007241B01D218D3081440012500229BB2DF
:100C20005900C918054BC9188B5CE3402B40934011
:100C300001321843C0B2032AF6D1E7E78C10002036
:100C4000F0B5D6464F464646C0B5484A84B01278FD
:100C500001AB1980002A65D15E781F78002823D166
:100C60000025052E09D92800019900F0BDFB04B02C
:100C7000E0BCBA46B146A846F0BD0F2FF3D8072016
:100C8000002201243601BF19FB085900C918384B4E
:100C90003840C9188B5CC3402340934001321D4348
:100CA000EDB2032AF6D1DEE71B8803AA1380904633
:100CB000304B314A1B78127803241A4301239146A2
:100CC0009A464B46524623411A4221D1013CF8D262
:100CD0000025052EC7D80F2FC5D83601BE19F30839
:100CE0005800C018224B0124C018072333409C40F1
:100CF00000220126E4B22B00D340815C33405B42EA
:100D00004B402340594081540132032AF3D1AAE7D2
:100D10004346E5B22800196800F066FB80B201285E
:100D2000D4D0D6E7032401268BB202AA138003AAEB
:100D3000138090460F4B104A1B7815781D432B00EB
:100D400023411E4207D1013CF9D200273800029905
:100D500000F04AFB8BE74346E7B23800196800F021
:100D600043FB80B20128EED0F0E7C0468810002097
:100D70008C100020B1100020B0100020F0B5C64645
:100D80000324012600B50F4A0F4B15781B7882B05B
:100D900001AF38801D432B0023411E4208D1013C86
:100DA000F9D200239846404602B080BCB846F0BD58
:100DB000E3B218003968984600F016FB80B20128AB
:100DC000EDD0F0E7B0100020B110002070B5012484
:100DD0002300834020008840084E03433578D9B271
:100DE00094402B40994205D02800A043FFF77AFE9B
:100DF000307070BD2543E8B2F8E7C046B01000205F
:100E000070B50D4B0D4A1C680D4B12781B780D4DBB
:100E10001343290008222000237009F0E1F800287C
:100E200000D170BD08222100280009F04BF92000F4
:100E300005F07CF9F5E7C046600D002004110020A4
:100E400005110020D410002070B50D4B0D4A1C6810
:100E50000D4B12781B780D4D1343290020222000E2
:100E6000637009F0BDF8002800D170BD2022210078
:100E7000280009F027F9200005F062F9F5E7C046DF
:100E80005C0D00200411002005110020B41000208A
:100E900010B5074B1B78002B03D0064B1B787F2B1C
:100EA00002D8FFF7ADFF10BDFFF7CEFFFBE7C0464E
:100EB00000100020B01C0020014B18787047C0467D
:100EC00005110020024B1A78104318707047C04675
:100ED00005110020024A1378834313707047C046FF
:100EE000051100200022014B1A70704705110020E7
:100EF000024B1A78104318707047C0460411002046
:100F0000024A1378834313707047C04604110020CF
:100F10000022014B1A7070470411002010B5002107
:100F2000132000F0E1FD10BD10B500210F2000F0EE
:100F3000DBFDFFF7F3FF10BD00B583B000F0EEFD61
:100F40000020224900F0B6FD0021022000F098FDAB
:100F500001221F4B012103201A7000F091FDA021F6
:100F60000420490100F0A6FD0021062000F088FDC4
:100F70000021072000F084FD0021082000F0B4FDCE
:100F80000021242000F07CFD0021172000F078FDD6
:100F900000210C2000F074FD00210D2000F070FDF8
:100FA000002300226846009201931821083200F0C5
:100FB00049FD0021202000F097FD002004F0E4FE10
:100FC00004F000FFFFF7B0FF03B000BDE6FE000035
:100FD000B110002010B5FFF7AFFF10BD10B500F045
:100FE0009DFD0020014900F065FD10BDFFFF0000E0
:100FF000002010B500F016FD044B020000209A42BC
:1010000000D010BD04F0AAFEFBE7C046E6FE0000DB
:1010100010B5022000F0F6FC10BDC04610B503204C
:1010200000F0F0FC10BDC04610B5042000F0FAFC42
:1010300010BDC04610B50100042000F03BFD10BDFE
:1010400010B501000E2000F01BFD10BD7047C0461A
:101050007047C04610B5FFF7FBFF10BD10B5FFF796
:10106000D3F910BD10B5054800F0AEFA00F052FDFE
:10107000FFF7ECFFFFF7EEFF10BDC046C115000003
:101080000120704710B5FFF7FBFF10BD7047C04649
:101090007047C04610B5FFF7F9FFFFF7F9FF10BD25
:1010A00010B505F017FA04F0B3FE00F039FC00F0BB
:1010B000AFFAFFF7CFFA03F099FC04F099F9FFF7C4
:1010C000CDFF10BDF0B5DE4657464E464546E0B56D
:1010D00083B003F05DFF041E00D16FE000F082FBDF
:1010E0004C4B00249B461D0002E0023586420AD18B
:1010F00020000134E4B22E8800F0B8FA062CF4D1B6
:10110000864200D171E0444B1B789B076AD4FFF7FD
:10111000B9FF002382469846404600F0A7FA5B4696
:101120001F888146B8422CD0474000240125BFB219
:101130000AE032002100404602F036FF01346D0023
:10114000E4B2ADB2102C19D03D42F7D04E462E403D
:10115000731E9E415346F6B2002BEAD06B464246C0
:101160001C705A7005F01EFA6B46012258801A71E5
:101170005E7100980199FFF757FCDAE75B464A4633
:101180001A8043460133DBB2984602239C4643460D
:10119000E344062BC0D105F0B7F9204B1860204B73
:1011A000186004F037F902F0C7FFFFF773FA03B0D5
:1011B000F0BCBB46B246A946A046F0BD05F0F2F928
:1011C000184E050033888342EBD06B461C8005F037
:1011D000E9F96B4658809C8000980199FFF724FC40
:1011E0003580DEE700F048FA91E705F0DBF90D4DB8
:1011F00004002B888342D4D06B4600261E8005F065
:10120000D1F96B4658809E8000980199FFF70CFC3D
:101210002C80C6E7081100201C11002018110020A6
:10122000141100200611002070B500F0E9F8A02389
:101230000400DB01984211D28022920190423ED2FA
:10124000C22858D8A7284DD8A42860D8032803D886
:10125000013C63425C41A4B2201C70BD4B4B9842E0
:1012600016D84B4B984279D84A4B98422DD8A42394
:10127000DB01984266D21F20204000F055F9E405BA
:10128000240F2402C3067ED400B2434B04433BE048
:10129000424B98421FD8424B98426BD8414BC318DF
:1012A0009BB21F2B1CD80321012221408A40E30658
:1012B0005B0F3D4C5B0113431C43A4B2CCE7FF2002
:1012C000204000F09DF80400C6E71F23374C034080
:1012D0001B021C43C0E7364BC3189BB21F2BE2D93D
:1012E0000024B9E75834334BE4B26400E35A88244D
:1012F000E4011C43B0E7E7280FD8DF28ACD8020090
:10130000CD3A92B2122AEBD81C43A4B2A4E78023B0
:10131000243CDB011C43A4B29EE7F826431EFF3B9E
:101320009BB27601B342DBD2000AC0B200F0FCF8F7
:101330000500FF20204000F063F82D0235402843CF
:1013400084B289E70324C2B2144093080122A24068
:101350005B01194C13431C43A4B27DE70321012216
:1013600001408A40C3065B0F144C5B0113431C43CE
:10137000A4B271E71F20204000F0D6F8F823040241
:101380005B011C4068E7000100B27EE75F5200008D
:101390003F5200001F5200000090FFFFBF520000AC
:1013A0009F520000A0ADFFFF008AFFFFF1A00000E8
:1013B00040ADFFFF10B20000008DFFFF008CFFFF6B
:1013C00010B582B06A460B04040091800020190E0B
:1013D000052902D812790F2A01D902B010BD2000C8
:1013E00004F0E6F8F9E7C04600B583B001AB198018
:1013F0000199FFF7E5FFFFF717FF03B000BDC046F7
:10140000E72818D8DF2817D90300E03B9BB2072B49
:1014100011D8424A9B00D3589F46414B1878020787
:1014200000D577E05B789B0700D575E0E623C00622
:10143000C0179843E730704739283AD82828FAD996
:101440000300293B9BB2102BF5D8364A9B00D3589A
:101450009F46334B1B781A07EDD5E622DB06D817DB
:101460009043E730E7E72E4A53789B07E3D510789F
:10147000DCE72B4B1878420746D45B78DB0741D476
:10148000E223C006C0179843E330D4E7244B1B780F
:101490005A07D0D5E222DB06D8179043E330CAE7DB
:1014A00001221F490B781A4230D149780A42F1D102
:1014B000C1E78228BFD11A4A13789B0722D15378FB
:1014C0001B07B8D52920B6E7154B1B789B06B2D56C
:1014D000F8E7134B187806234006C01798433130BD
:1014E000A9E70F4B1B785B06A5D53120A3E70C4A73
:1014F00013789B060CD4102053781B07DB17184079
:10150000293098E7E02096E7E22094E7392092E737
:10151000352090E7E6208EE7E4208CE748B2000013
:10152000B01C002068B2000030B5244C23785A0764
:101530000DD51421014004394A425141182202407C
:10154000083A55426A41914201D00C2250401A0794
:101550000DD51421014014394A425141182202404C
:10156000183A55426A41914201D00C2250406278AB
:10157000D1070DD511240440013C61424C41182192
:10158000014008394D4269418C4201D0092148404F
:1015900092070DD51121014011394A4251411822BB
:1015A0000240183A54426241914201D0092250400F
:1015B000DB0601D51823984330BDC046B01C00207F
:1015C0000020704700207047014B18607047C046EC
:1015D000640D002010B5FFF701FD10BD10B500F03F
:1015E00001F9084806F09EF900F0FCF8002000F030
:1015F0003DF8C00700D410BDFFF7ECFF04F0E6FF94
:10160000F9E7C0465307000010B5FFF7E7FF10BD2C
:1016100010B5FFF7EDFC002812D0FFF7F9FC0A4BDC
:101620001870FFF701FD094B1880FFF7EDFFFFF77A
:10163000F5FCFFF72FFA064B1878FFF753FA10BDA9
:10164000FFF7C8FCE9E7C0461C110020B01C0020D1
:10165000B01000207047C04610B5FFF7FBFF10BD6B
:101660007047C04610B5FFF7FBFF10BD014B4000AF
:10167000185A7047C01C00207047C046534B10B525
:101680001C68534B9C4200D89FE020005149FEF754
:10169000A5FD514B9C4200D889E00722C3081040A9
:1016A000102B00D983E04D4A9B00D3589F46C0467B
:1016B000C046C046C046C046C046C046C046C046FA
:1016C000C046C046C046C046C046C046C046C046EA
:1016D000C046C046C046C046C046C046C046C046DA
:1016E000C046C046C046C046C046C046C046C046CA
:1016F000C046C046C046C046C046C046C046C046BA
:10170000C046C046C046C046C046C046C046C046A9
:10171000C046C046C046C046C046C046C046C04699
:10172000C046C046C046C046C046C046C046C04689
:10173000C046C046C046C046C046C046C046C04679
:10174000C046C046C046C046C046C046C046C04669
:10175000C046C046C046C046C046C046C046C04659
:10176000C046C046C046C046C046C046C046C04649
:10177000C046C046C046C046C046C046C046C04639
:10178000C046C046C046C046C046C046C046C04629
:10179000C046C046C046C046C046C046C046C04619
:1017A000C046C046C046C046C046C046C0460828DF
:1017B0000BD80B4B80001B589F46C046C046C04606
:1017C000C046C046C046C046C04610BD241D0020CD
:1017D000FF083D0000093D00FF502502ACB20000AB
:1017E000F0B2000010B5074C200003F0A1FC062267
:1017F00003000549200000F0ADF80400FFF732FFB8
:10180000200010BDB41C0020C01C002070B5124C7C
:101810000F26250018352068431C07D072B631000A
:1018200003220140B04306F09FFF62B60434AC428D
:10183000F1D10A4C0F26250040352068431C07D003
:1018400072B6310003220140B04306F08DFF62B64C
:101850000434AC42F1D170BD54B3000014B30000A5
:10186000F8B52D4B454698468B0057469A46434659
:101870005246DE464E469B5881468B46E0B55A1C82
:1018800005D1F0BCBB46B246A946A046F8BD72B62B
:101890000F251E00AE431D4006222900300006F031
:1018A00063FF0123AB40B36262B6FFF7E7FE1B495B
:1018B00001220F0000250F20012640370B685C1C19
:1018C00009D01C00844324680340DC40230034001A
:1018D0009C4300D115435200043192B2B942EDD17C
:1018E000434652469858431C0BD129004B1E994140
:1018F0005846C9B203F046FB5B465C004B46E552D6
:10190000BFE772B60F23190003220140984306F087
:101910002BFF62B6E9E7C04654B3000014B30000E1
:1019200010B5FFF773FF0C220021074808F079FB80
:101930000C220021054808F074FB062000F008F88E
:10194000FFF78AFE10BDC046C01C0020B41C00205A
:101950007047C046F8B54746CE461C0080B50E001D
:1019600007001500164B002C1CD198461B78994691
:10197000002B04D10020C0BCB946B046F8BD114BC5
:10198000186804F01DFE0428F4D96D002A003900FF
:10199000300008F025FB00280BD100234246200030
:1019A0001370E8E701221A7004F0AEFD054B1860D1
:1019B000E0E72A003900300008F084FB4C46ECE7F1
:1019C000241100202011002010B505F09BF9FFF72D
:1019D00067FB05F0ADF910BD10B505F0B1F9FFF7E3
:1019E00071FB05F0D3F910BD10B504F003FD05F04F
:1019F00085F9FFF737FBFFF7E7FFFFF7EDFFFFF78D
:101A000049FBFAE700B583B06A460023D3716B4601
:101A100001000122D81D00F085F86B46D87903B08B
:101A200000BDC04600B583B06A460023D3806B4634
:101A300001000222981D00F075F86B46D88803B0AB
:101A400000BDC046F8B51400D31D6A46DB08DB00B4
:101A5000D31A00AF9D460500220068460E0000F034
:101A600061F822006946280008F0BAFA002801D17E
:101A7000BD46F8BD22003100280000F05BF8F7E712
:101A800030B583B000236A46D3716B4604000D0065
:101A900001220100D81D00F045F86B46DB799D421C
:101AA00006D06B4601222100DD71D81D00F042F8FE
:101AB00003B030BD30B583B000236A46D3806B4697
:101AC00004000D0002220100981D00F02BF86B4667
:101AD000DB889D4206D06B4602222100DD80981DE6
:101AE00000F028F803B030BD002330B583B0040007
:101AF0000D000422010001A8019300F013F8019BDE
:101B00009D4205D00422210001A8019500F012F8A1
:101B100003B030BD10B500F0F5F810BD10B500F001
:101B200011F810BD030010B50800190000F050F8BE
:101B300010BDC046030010B50800190000F096F96A
:101B400010BDC046F0B5C646E92600B51F4CB6002C
:101B5000A75D002F28D100F06FFA051E1AD00123CF
:101B6000A35500F06BFAE8239B0098461A00050085
:101B70000021200008F055FAEA2342469B00A350BA
:101B8000A35D002B1DD000F07DFA00280AD02800AC
:101B9000A75517E0A35D002B04D000F073FA0028CE
:101BA00000D0A55500200DE0E82600F047FAB60069
:101BB000050032000021200008F033FAEA239B00E0
:101BC000A351280080BCB846F0BDC04628110020B3
:101BD00070B50C00E82185180300890000208D42B3
:101BE00005D803492000591808F06CFA012070BD8F
:101BF00028110020F8B5171E0ED0040000250E1A7B
:101C000003E001350434AF4206D02000311900F062
:101C10003BFA0028F5D1F8BD0120FCE7F8B5171E06
:101C20000ED0040000250E1A03E001350434AF4243
:101C300006D02000315900F015FA0028F5D1F8BD82
:101C40000120FCE770B582B000F0F8F9002400280C
:101C500002D1200002B070BDE926274DB600AB5D71
:101C6000002B29D100F0E8F9002825D00123E82233
:101C700029000020AB55FFF7D1FF002810D0E82144
:101C80001E4A1F4B2800890003F0F2FA00900191D0
:101C9000E820022269468000FFF7C0FF4400E4B25A
:101CA000E926B600AB5D002B0ED000F0EBF9002862
:101CB0000AD00023AB5507E0E82229000020FFF7F7
:101CC000ADFF002806D10024E823EA229B00920001
:101CD000EA50BEE7E821094A094B2800890003F0D1
:101CE000C7FA00900191E820022269468000FFF7C0
:101CF00095FF4400E4B2E7E7281100202523228461
:101D0000E49CF2CBF0B5DE46454657464E46E82405
:101D1000E0B5534DA40085B022000021280008F052
:101D200080F9EA239B002B5100F084F9002806D0AB
:101D3000E82229000020FFF75DFF002812D1E824E7
:101D4000A40022000021280008F06BF9EA239B0080
:101D50002B510024200005B0F0BCBB46B246A9467A
:101D6000A046F0BD3F4B404A2100280003F080FA16
:101D7000022206000F00200002A9FFF73BFF029B92
:101D8000B34202D1039BBB4209D0E824A400220045
:101D90000021280008F045F9EA239B002B51FF237E
:101DA0009946E023DB029846E823EA249B009B4601
:101DB000A400200001A900F067F9002849D0019B88
:101DC000002B48D0DAB2261D0293910912D0E823E5
:101DD0009B00EE50FFF736FF0400002CBAD1E82636
:101DE000B60032000021280008F01BF9EA239B000E
:101DF000AB51AFE74846414618400004084019047B
:101E0000090E1B0209021B0E0B431843D708C31906
:101E100082465B45DBD83023134218D0300003A93B
:101E200000F032F90028D2D0083453460B21E818CC
:101E30003A00694408F046F9E823DB009C42B8D335
:101E4000E8239B00EC50FFF7FDFE0400C5E73400DB
:101E5000EBE72600BBE7E8239B00EC50012479E781
:101E600028110020E49CF2CB25232284F0B54E46B5
:101E70004546DE465746E0B5E82683180500894604
:101E8000140083B0B600B34200D97FE0684B1F183E
:101E9000390048469A4608F0A3F801239B460028DB
:101EA00007D1584603B0F0BCBB46B246A946A0468F
:101EB000F0BD380022004946E92708F003F95346EF
:101EC000BF00DB5D002B00D08DE000F0B5F8804650
:101ED000002850D053465A46DA5501239846002C24
:101EE00000D19AE02600052C00D905260022002307
:101EF0000092019307322B0C1340F20013436A4601
:101F000013702B0A53706B4649469570D81C3200EB
:101F1000E82708F0D7F85346BF000099D85900F0D9
:101F2000A1F8002835D053465246DB590433D3512B
:101F3000E822D200934250D2012C36D1E8225146F9
:101F40009200E8238A580121DB008B469A4260D236
:101F50004346012BA5D1E92352469B00D35C002BBD
:101F60009FD000F08FF8002810D0E92300225146BE
:101F70009B00CA5495E75346DB5D002B06D000F06A
:101F800081F8002802D053464246DA5500239B468A
:101F900087E700239B465A46FD2313405A4253418C
:101FA0005A465B421A409346D2E7E8275346BF00A1
:101FB0000199D85900F056F80028EAD05346524605
:101FC000DB590433D351E822D20093421BD2A41B25
:101FD000AD19B144002C85D1B0E7FFF733FE83463D
:101FE0000128A9D0D7E702239846002C00D079E732
:101FF0005246E8239259DB009A4200D251E7FFF79C
:1020000021FE83464DE7FFF71DFE83460128DED003
:10201000C1E7FFF717FE83469AE75246E823925935
:10202000DB009A429DD3FFF70DFE834693E7C0463F
:1020300028110020012070470120704770B501254C
:10204000064C074E200007F091FD431E9841403496
:1020500040420540B442F5D1280070BD80F8000030
:10206000C0FF0000064B10B59C4603236044984314
:1020700007F0DEFD013843425841C0B210BDC046F2
:1020800080F8000001207047024BC35801200B600C
:102090007047C04680F80000F0B5CE46474680B590
:1020A000050A85B0030CEDB20190DBB2002D31D0F2
:1020B00001AA1C001E00107800293FD14300984659
:1020C0004044FF214000FEF7CFF8FF2382009146F5
:1020D00012181101521841469C468A1A5100521892
:1020E0006746D2B21100BA1A69435B1B5543091205
:1020F0002D12791A7D1B634361436C431B12091235
:102100002412DBB2C9B2E4B206282DD84846184AD8
:1021100012589746002901D0164AD35C1C001E00B5
:10212000FF2220001640104036021A4012043043AD
:10213000104305B0C0BCB946B046F0BD0D4B1E5DA6
:102140003400BBE7220034001E001300E8E7320031
:102150000C001E001300E3E722001C0033001600F1
:10216000DEE734000E00DBE71C000B00D8E7C046BA
:102170006CB3000030B5000000B5012185B0FFF759
:102180008BFFFF210200030A0B40000C08400A40AD
:102190001B021A43030402481040184305B000BD57
:1021A000FFFF00FF10B5030A84B001903031D8B2B0
:1021B000104B4900C95CE4234B431B121C339A1A91
:1021C000D317D2185A40D200821A13B2DB43DB175E
:1021D00013401BB2584301AC001260702388207872
:1021E0001B0A1B02044A1843A37810401B0418431F
:1021F00004B010BD000C0020FFFF00FF134B303176
:102200004900C95CE4234B431B121C339A1AD317B1
:10221000D21810B55A40040CE4B2D200A21A13B27C
:10222000DB43DB171340FF221BB25C431300034068
:10223000000A1040000218432412054B14402404E5
:10224000184084B0204304B010BDC046000C0020EC
:10225000FFFF00FF84B001A901900A700B88D0B283
:102260001B0A1B02034A18438B7810401B041843B7
:1022700004B07047FFFF00FF10B50A4B3031490032
:10228000CB5C84B001AC9B1A01902370238820782A
:102290001B0A1B02044A1843A37810401B0418436E
:1022A00004B010BD000C0020FFFF00FF10B50B4B69
:1022B000303149005B185B7884B001AC9B1A019007
:1022C0002370238820781B0A1B02054A1843A37831
:1022D00010401B04184304B010BDC046000C002081
:1022E000FFFF00FFF0B53031114E15004A00B21863
:1022F000577885B03A00203A019001ABC0B254B291
:10230000120602D52024E41B64B24900725C521B01
:102310001219801818701A88C0B2120A12029B781B
:102320001043044A1B041040184305B0F0BDC046DA
:10233000000C0020FFFF00FF84B004A90190087882
:102340005900C918491001AA401810701388C0B26A
:102350001B0A1B0218439378024A1B0410401843BF
:1023600004B07047FFFF00FF70B584B0019048B221
:102370000C0601D5494248B23826361AB6B292B296
:1023800076435243B618B6B2012E2FD9F722FF2555
:102390005201964226D9012403E00138C5B2AC426D
:1023A0000DD8621952101100514389B2D0B28E4239
:1023B000F3D3FF2A1ED00130C4B2AC42F1D9013CA4
:1023C0006200A418E4B201AA1B19137013881078D4
:1023D0001B0A1B0218439378074A1B04104018433A
:1023E00004B070BD75090835EDB2D4E77400341936
:1023F000E4B2E8E7FD24E6E7FFFF00FF70B5303305
:102400000F4D5B00EE185B5D7678703B59437F2380
:10241000203E72435218D1170B409B1884B0DB1139
:1024200001AC1B1801902370238820781B0A1B0223
:10243000044A1843A37810401B04184304B070BD2D
:10244000000C0020FFFF00FF70B530330F4D5B0024
:10245000EE185B5D7678703B59433F23203E724314
:102460005218D1170B409B1884B09B1101AC1B185C
:1024700001902370238820781B0A1B02044A18430A
:10248000A37810401B04184304B070BD000C00205A
:10249000FFFF00FF70B53033154D5B00EE18767806
:1024A00084B0203E72435E5D01903500703D01AC0A
:1024B000C0B26BB22D0602D570239B1B5BB23825D0
:1024C000EB1A59438A1853009B187F22D9170A40E8
:1024D000D218D211801820702388C0B21B0A1B02A8
:1024E000044A1843A37810401B04184304B070BD7D
:1024F000000C0020FFFF00FF30B50F4B30314900CA
:10250000CD5C85B0AB1A019001ACC0B2D9B21B064C
:1025100001D5521BD1B24B005B185B11C018207063
:102520002388C0B21B0A1B02044A1843A378104038
:102530001B04184305B030BD000C0020FFFF00FF56
:10254000C94310B5FF24030CC9B2DBB24B432100D1
:102550000140000A20401B0A1C400002034B0843B4
:102560002404184084B0204304B010BDFFFF00FFD6
:1025700010B5FF24822321405B1A19B2C943C91741
:1025800084B01940019001AA401810701088937807
:102590000440000A00021B042043184304B010BD8D
:1025A00010B584B006AA128801909800C0181218BD
:1025B000131C92B201A9FF2A00D9FF23DB438A78BA
:1025C000DBB29B181C1CFF2B00D9FF240A88FF23B9
:1025D0001000120A1840120223401B041043184333
:1025E00004B010BD30B585B0019008A800881B1854
:1025F000C81709184140D0171218424009B29BB2BF
:1026000092B20901FF2900DDFF2112B21201FF2A57
:1026100000DDFF220C1C15B209B201A8A94200DDA1
:10262000141C1A19131C92B2FF2A00D9FF23DB4392
:102630008278DBB29B18191CFF2B00D9FF2102887E
:10264000FF231000120A184012020B401B04104313
:10265000184305B030BDC04670B584B0050C1600F7
:1026600008AA01901288E8B201ACFF25482B05D8D2
:10267000D31A1D1C9BB2FF2B28D8ADB2083189B2EA
:10268000102904D9330008339BB2102B1CD8ED431A
:10269000EDB20322F1170E4B0A405B7892194019F4
:1026A0009210D218011C80B22270FF2800D9FF219D
:1026B0002288FF231000120A184012020B401B044C
:1026C0001043184304B070BD0025E2E7FF25D4E7AE
:1026D000D01C002010B584B006AA12880190D21A2E
:1026E000131C92B2FF2A00D9FF23DBB2D84301AA00
:1026F0009178C0B209180C1CFF2900D9FF24117869
:102700005B1813701288FF231000120A184012027F
:1027100023401B041043184304B010BD10B584B00F
:1027200006AA128801A9D31A1A1C9BB20190FF2B8A
:1027300000D9FF22D3438A78DBB29B181C1CFF2BE5
:1027400000D9FF240A88FF231000120A1840120241
:1027500023401B041043184304B010BDF0B5C64617
:1027600000B5060AF6B284B0F71A0C0090461300C2
:1027700001AD0190FFB2002A18D1C90FC9018B0128
:102780005B1A9B00C9187F18FFB27E4336126E7029
:102790002B8828781B0A1B02124A1843AB7810407A
:1027A0001B04184304B080BCB846F0BDD2179B1878
:1027B00053401BB2C918002C0CDBE31A5801FDF77B
:1027C00053FD2021091AC9B24346002BD7DA4942EA
:1027D000C9B2D4E74801191BFDF746FD6021091A6B
:1027E000C9B2F1E7FFFF00FF70B584B00C0016001E
:1027F0001D000190002A10D1CC0FE40101AA2D196F
:1028000015701388E8B21B0A1B0218439378104A0C
:102810001B041040184304B070BDD217B3185340C6
:102820001BB2C918002C0BDBE41A6001FDF71CFD7C
:102830002024241AE4B2002EE0DA6442E4B2DDE798
:102840004801191BFDF710FD6024241AE4B2F2E7D9
:10285000FFFF00FF70B584B0160008AA15780C00C1
:102860005D1B0190EDB2002E10D1CC0FE40101AA46
:102870002D1B15701388E8B21B0A1B0218439378AE
:10288000104A1B041040184304B070BDF217B3186F
:1028900053401BB2C918002C0BDBE31A5801FDF79B
:1028A000E3FC2024241AE4B2002EE0DA6442E4B20D
:1028B000DDE74801191BFDF7D7FC6024241AE4B2B8
:1028C000F2E7C046FFFF00FFF0B5050CEDB285B0A2
:1028D000EE1A0C0017000190F6B2002A16D1C90FAB
:1028E000C9018B015B1A9B00C91801AB1A88FF2331
:1028F00010007618F6B27543120A2D0A184012021B
:102900002B401B041043184305B0F0BDD217BB1871
:1029100053401BB2C918002C0BDBE31A5801FDF71A
:10292000A3FC2021091AC9B2002FDADA4942C9B240
:10293000D7E74801191BFDF797FC6021091AC9B2B6
:10294000F2E7C046F0B5C646904600B584B00AAA84
:102950001278070AFFB29B1AFB18DCB243460D003F
:1029600001AE0190002B14D1CD0FED01631BDBB242
:102970007B431C127470338830781B0A1B02134A85
:102980001843B37810401B04184304B080BCB84609
:10299000F0BDDA179B1853401BB2C918002D0CDB91
:1029A000EB1A5801FDF760FC20252D1AEDB24346C5
:1029B000002BDBDA6D42EDB2D8E74801591BFDF779
:1029C00053FC60252D1AEDB2F1E7C046FFFF00FF72
:1029D000F0B585B017000AAA1278060CF6B29B1A59
:1029E000F3180D000190DCB2002F12D1CD0FED01D4
:1029F00001AA1288631BDBB25E431000FF23340A76
:102A0000120A1840120223401B041043184305B059
:102A1000F0BDFA17BB1853401BB2C918002D0BDBD1
:102A2000EB1A5801FDF720FC20252D1AEDB2002FDE
:102A3000DEDA6D42EDB2DBE74801591BFDF714FC0D
:102A400060252D1AEDB2F2E770B584B0019001ACAB
:102A5000C0B2530635D40F2315001340AD061C4EEB
:102A6000AD0F6D00AD196E782D7873431B115B1996
:102A700052B2DBB2002A01DA5B42DBB2154A3031D6
:102A800049008A5C803A9B18DBB219008039CAB2CF
:102A9000090603D580225242D21AD2B25300DBB2C9
:102AA0005A00D3189B09C01820702388C0B21B0A93
:102AB0001B02094A1843A37810401B04184304B0B2
:102AC00070BDD3430F26DDB233400133C6E7C046A5
:102AD0003CB40000000C0020FFFF00FF00B585B0F3
:102AE000FFF74AFBFF210200030A0B40000C0840DD
:102AF0000A401B021A43030402481040184305B061
:102B000000BDC046FFFF00FF70B582B06946194B9B
:102B100005009A784A70DA788A70174A5E781488C5
:102B200030006302E3189B00E418144BB4219C4668
:102B30006444A4B21480B4304900FDF7DFFB0322E3
:102B4000891BCB1713405B18210A09190A409B10F7
:102B50005343F6186B461E700098FFF7BFFFC2B2D2
:102B60000104030206481B0E4468090E2800A04712
:102B700002B070BDD01C0020A40E00201936000049
:102B800044B40000174930B50B8883B05A029A1834
:102B900092009B18144A04009446684663449BB212
:102BA0001A0AD21802705A029A1892009B186344AB
:102BB0009BB21A0A0B80D318DBB25B087F334370D9
:102BC0000A4BDB7883700098FFF788FFC2B20104DC
:102BD000030207481B0E4568090E2000A84703B0F2
:102BE00030BDC046A40E002019360000D01C0020C5
:102BF00044B40000F0B54E464546DE465746E0B5C3
:102C000005788BB02B01ED18EDB22C001134E4B235
:102C100081460491231C542C00D95423DBB29A46DC
:102C2000494B1A88494B05931B795B0853431B1288
:102C3000DBB29846554575D22B00454A30335B00D0
:102C40009F18444B09329B464346D046FF320292BE
:102C500009AE069307944A46029B52785B5D1A427E
:102C60005AD03A787978703A203993B294468AB239
:102C70005B4352439B189BB29A460391012B5DD94B
:102C8000F723FF215B019A4503D8534659090831C0
:102C9000C9B22B00012455469A4603E00138C1B25F
:102CA0008C420DD863185B101A005A4392B2D8B206
:102CB0009542F3D3FF2B43D00130C4B28C42F1D9FB
:102CC0005546013CE3B2069A049C0092059A51785D
:102CD000214A527812020A431F498878614600044B
:102CE0001043039AA0473070030400021B0E000E2D
:102CF0007370B0703068FFF7F1FE0104030208AA98
:102D0000090E1B0E107051709370C2B25846DBB2A0
:102D10004468C9B22800A0470135EBB20237984594
:102D200099D8079C53230020A3424041C0B20BB066
:102D3000F0BCBB46B246A946A046F0BDDBB2C2E736
:102D40005546FF23BFE7C046D81C0020D01C0020FA
:102D5000000C002044B40000D11C0020F0B54E4609
:102D6000DE46574645460478E0B52301E418E4B250
:102D70002600113689B0F6B281460391331C542ED9
:102D800000D95423DBB29B462F49304B04910A797A
:102D90001B88520853431B12DBB202935C4546D298
:102DA00027002B4B30377F00FF180933FF33019387
:102DB0004B1C9846274B07AD9A4605964A46019B01
:102DC00052781B5D1A422CD0049B7A78587843467F
:102DD0005B7839781B02034340468078203A70398B
:102DE000000412B209B2039E1843029BB047287038
:102DF000030400021B0E000E6B70A8702868FFF71A
:102E00006DFE010406AB090E1870597003021B0E0B
:102E100006AA9370C2B25046DBB24668C9B220001F
:102E2000B0470134E3B202379B45C7D8059E532310
:102E30000020B3424041C0B209B0F0BCBB46B2462C
:102E4000A946A046F0BDC046D01C0020D81C0020DA
:102E5000000C002044B40000F0B504784546DE467E
:102E600057464E462301E418E4B22300E0B511337F
:102E700087B0DBB2804601911A1C542B00D9542232
:102E8000D2B2934628482949029002790F889208C5
:102E9000013257433F12FAB200925C4537D2244ABE
:102EA000461C9146234A05AD924603934B46424643
:102EB0001B5D52781A4225D0029BB0785A787378FD
:102EC00000041B021343E1B2009A1843019B984788
:102ED0002870030400021B0E000E6B70A870286897
:102EE000FFF7FCFD010404AB090E187059700302D2
:102EF0001B0E04AA9370C2B25046DBB24768C9B237
:102F00002000B8470134E3B29B45CFD8039B53223E
:102F100000209A424041C0B207B0F0BCBB46B24666
:102F2000A946A046F0BDC046D01C0020D81C0020F9
:102F3000080D002044B40000F0B5DE464E4657466A
:102F400045460478E0B52301E418E4B226001136C2
:102F50008BB0F6B283460691331C542E00D954230D
:102F6000DBB29A46474B484A03931B7912889B0869
:102F70005A431212D3B298464033D8B25B0600D5FA
:102F80007AE00F2305000340AD064049AD0F6D0008
:102F90004D196F782D787B431B115B1940B2DBB262
:102FA000002801DA5B42DBB25BB2049343465B0666
:102FB0005ED543460F25DB43D8B22B400133800654
:102FC000800F400009184878097843431B115B18AB
:102FD000DBB2120601D55B42DBB25BB2059354450E
:102FE0003AD22B4B09AD0293039B07965F1C294BEA
:102FF00099465A46029B52781B5D1A4227D0424698
:103000000092039AB87851787A78000412020A4341
:10301000069E0499E3B21043059AB0472870030452
:1030200000021B0E000E6B70A8702868FFF756FD9B
:103030000104030208AA090E1B0E10705170937050
:10304000C2B24846DBB24668C9B22000B04701347C
:10305000E3B29A45CDD8079E53230020B3424041A6
:10306000C0B20BB0F0BCBB46B246A946A046F0BD0C
:103070000F2340460340A2E7C3430F21DDB20B40BC
:10308000013381E7D01C0020D81C00203CB4000094
:10309000080D002044B40000F0B504785746DE4621
:1030A0004E4645462301E418E4B22300E0B511334F
:1030B00087B0DBB2824601910393542B00D954238D
:1030C000DBB29946424B98461B790133191CFF2B02
:1030D00000D9FF213F4889B2FDF7C6F8029086B2B9
:1030E0004C4563D23C4D3D4B2F009B46113F009514
:1030F00003E00134E1B2894558D95B4652461B5D75
:1031000052781A42F5D0364B1A78013AD3B21206E9
:103110005CD4009DE1B202E0013B1A0653D4EA5CA4
:103120008A42F9D118000C30400038184278944691
:103130008278604612020243B242EDD2110000953D
:1031400043461B7901331A1CFF2B00D9FF2243464B
:1031500092B251435A789B7809121B02134342469C
:10316000D07889B200041843019B984705AB1870CA
:1031700002040002120E000E5A7098700598FFF7B4
:10318000ADFC010404AB090E1870597003021B0E4C
:1031900004AA9370C2B21348C9B24068DBB20500FA
:1031A00020000134A847E1B28945A6D85323002066
:1031B000039A93424041C0B207B0F0BCBB46B2464E
:1031C000A946A046F0BD02990095B9E70299B7E774
:1031D000D01C0020FFFF0000ED1C0020080D002087
:1031E000DC1C002044B40000F0B54E46DE465746D5
:1031F00045460B00E0B51B7891B00A9111001A0109
:103200009B18DEB234001134E4B2221C542C00D9D5
:103210005422D3B26F4A09931700127891469E4206
:1032200000D3C1E0330030335B0098466A4A6B4BF1
:1032300090440932FF320B923A009B46684B0932A8
:103240000C9307923B004A4647460D94884604007B
:1032500099460EAD0692089608E0089B099A01333C
:103260000893DBB202379A4200D89CE0089A0B9B85
:103270009B5C0A9A52781A42EFD0032228005949DF
:1032800006F020FF069BA34200D8A1E00023C2461F
:103290002600B8462700039343461878524BDB5D5F
:1032A000C01A43465A78079B81B2DB5D4943D21A64
:1032B00093B25B43C91889B29446012900D87FE0D4
:1032C000F723FF225B01994202D84A090832D2B2A1
:1032D00063460124B44604900E00059303E00139CF
:1032E000CAB294420DD8A3185B101800584380B29C
:1032F000D9B28642F3D3FF2B64D00131CCB29442D1
:10330000F1D9059B013C049866469C46E3B25A46B7
:1033100012790132111CFF2A00D9FF213A000C3228
:1033200052004A445478927889B2120222434A43A6
:103330000399121292B2A9700092010062462868A5
:10334000D0470304287000021B0E000E6B7001377B
:10335000C3B2069A0393FBB2A8709A429CD8474620
:103360003400D046039B5A46D278023753431B128F
:10337000AB702868FFF7B2FB010403020FAA090E25
:103380001B0E107051709370C2B20C98DBB246687D
:10339000C9B20898B047089B099A01330893DBB279
:1033A0009A4200D962E70D9C53230020A34240417A
:1033B000C0B211B0F0BCBB46B246A946A046F0BDB3
:1033C000CBB2A4E7059B664604989C46FF239EE784
:1033D0000023C8E7DC1C0020000C0020D01C0020CB
:1033E00044B40000D11C0020DD1C0020F0B504789E
:1033F000DE465746454623014E46E418E4B2230014
:10340000E0B51133DBB280469B4683B01F1C542BC2
:1034100000D954271B4A01AE93785178D0781B020B
:103420000B4300041843FFF759FB030430700002FC
:103430001B0E000EFFB27370B070BC4214D2124B60
:103440009946124B9A464B4642461B5D52781A42A9
:1034500006D05046B3784568327820007178A84786
:103460000134E3B2BB42EED353235A4600209342C9
:103470004041C0B203B0F0BCBB46B246A946A0462C
:10348000F0BDC046D01C0020080D002044B4000050
:10349000F0B504784546DE4657464E462301E4180B
:1034A000E4B22300E0B51133DBB287B0804601936C
:1034B0001D1C542B00D9542503AB9A462B4B0322D9
:1034C0009946591C504606F0FDFD4B4603985F781F
:1034D000FFF704FB030404AE1B0E73704B46307001
:1034E0000002000EB0701B79EDB2FF1853461F703A
:1034F0000398FFF7F3FA05AF0304387000021B0EC0
:10350000000E7B70B870AC4222D2194BA9469A4685
:10351000184B9B4608E02000BB783A787978A8479A
:103520000134E3B24B4513D2534642461B5D5278F9
:103530001A42F5D05A46556801221A42EBD12000B2
:10354000B378327871780134A847E3B24B45EBD3B6
:1035500053230020019A93424041C0B207B0F0BC0F
:10356000BB46B246A946A046F0BDC046D01C0020CE
:10357000080D002044B40000F0B545465746DE462D
:103580004E460478E0B52301E418E4B22500113575
:10359000EDB2804685B02F1C542D00D95427234B03
:1035A00003229A46591C02A806F08CFD53461B794B
:1035B000FFB29B080093BC422CD21D4B03AE994630
:1035C0001C4B01959B464B4642461B5D52781A4266
:1035D0001BD0194A6300D35C009A1B09534352461F
:1035E00052789B1802AA13700298FFF777FA010429
:1035F00003023070C2B25846090E1B0E4568717046
:10360000B3702000DBB2C9B2A8470134E3B29F42D5
:10361000D9D8019D53230020AB424041C0B205B030
:10362000F0BCBB46B246A946A046F0BDD01C002067
:10363000080D002044B40000610C0020F0B54546A0
:103640005746DE464E460478E0B52301E418E4B25E
:1036500025001135EDB2804685B02F1C542D00D9C0
:103660005427234B03229A46591C02A806F02AFD30
:1036700053461B79FFB29B080093BC422CD21D4BD2
:1036800003AE99461C4B01959B464B4642461B5D3B
:1036900052781A421BD0194A6300D35C009A5343F4
:1036A000524652785B119B1802AA13700298FFF7DA
:1036B00015FA010403023070C2B25846090E1B0EFF
:1036C00045687170B3702000DBB2C9B2A8470134FD
:1036D000E3B29F42D9D8019D53230020AB42404121
:1036E000C0B205B0F0BCBB46B246A946A046F0BD8C
:1036F000D01C0020080D002044B40000600C002005
:10370000F0B50478DE465746454623014E46E41898
:10371000E4B22300E0B51133DBB280469B4683B0B0
:103720001F1C542B00D95427304D0322691C6846B6
:1037300006F0C8FC2E4B28791B88C008584300129D
:10374000EA78FFB2C1B243064AD40F230B40890680
:10375000284D890F490049194D7809786B431B1191
:103760005B18DBB2000601D55B42DBB259B200291F
:1037700001DA5B42DBB25B00DBB25A436B461212EA
:103780009A700098FFF7AAF901AE030430700002A6
:103790001B0E000E7370B070BC4214D2164B9946CB
:1037A000164B9A464B4642461B5D52781A4206D04B
:1037B0005046B3784568327820007178A8470134C4
:1037C000E3B29F42EED853235A4600209342404131
:1037D000C0B203B0F0BCBB46B246A946A046F0BD9D
:1037E000CB430F25D9B22B400133B0E7D01C0020CA
:1037F000D81C00203CB40000080D002044B4000098
:10380000F0B5C646037800B51A019B18DBB21F005D
:10381000827811370500FFB2002A19D1274B1B7996
:1038200010331A1CFF2B2DD8254B92B218880A2171
:103830005043001280B2FCF70DFD89B2002923D05D
:1038400053230020BB424041C0B280BCB846F0BD0B
:103850001C003E1C542F10D8F6B2B342F0DA194BBC
:10386000984642466B78125D1A4202D02000FFF75C
:103870004BF90134B442F4DBE2E75426F6B2B3422A
:10388000EDDBDDE7FF22CFE70F4954200B885A021A
:103890009A1892009B180D4A944663449BB21A0AE8
:1038A0000B80D318DBB25843064B00126A78C35C16
:1038B0001342C5D0FFF728F9C2E7C046D01C00204C
:1038C000D81C0020080D0020A40E0020193600008E
:1038D000F0B5C646037800B51A019B18DBB21F008D
:1038E000827811370500FFB2002A19D1274B1B79C6
:1038F00010331A1CFF2B2DD8254B92B218880521A6
:103900005043001280B2FCF7A5FC89B2002923D0F5
:1039100053230020BB424041C0B280BCB846F0BD3A
:103920001C003E1C542F10D8F6B2B342F0DA194BEB
:10393000984642466B78125D1A4202D02000FFF78B
:1039400021F90134B442F4DBE2E75426F6B2B34283
:10395000EDDBDDE7FF22CFE70F4954200B885A0249
:103960009A1892009B180D4A944663449BB21A0A17
:103970000B80D318DBB25843064B00126A78C35C45
:103980001342C5D0FFF7FEF8C2E7C046D01C0020A6
:10399000D81C0020080D0020A40E002019360000BD
:1039A000F0B50478DE465746454623014E46E418F6
:1039B000E4B22300E0B51133DBB280469B4683B00E
:1039C0001F1C542B00D95427314D0322691C684613
:1039D00006F078FB2F4B28791B88C008584300124B
:1039E0006A78FFB2C1B243064CD40F230B4089065C
:1039F000294D890F490049194D7809786B431B11EE
:103A00005B18DBB2000601D55B42DBB259B200297C
:103A100001DA5B42DBB25B00DBB25900CB189B09D9
:103A2000D2186B461A700098FEF7A6FB01AE03048D
:103A3000307000021B0E000E7370B070BC4214D2C6
:103A4000164B9946164B9A464B4642461B5D52789A
:103A50001A4206D05046B378456832782000717813
:103A6000A8470134E3B29F42EED853235A460020C0
:103A700093424041C0B203B0F0BCBB46B246A94637
:103A8000A046F0BDCB430F25D9B22B400133AEE7A2
:103A9000D01C0020D81C00203CB40000080D0020E1
:103AA00044B40000F0B557464E46DE464546E0B504
:103AB0004E4F85B003010293FB185A5C8146019179
:103AC000FF2A58D00021303252009346BA180132F2
:103AD00092468C463A00464B039300930023110014
:103AE0001A008B5CFF2B37D0E14561D0584630334C
:103AF0005C003B5D385C3C19C01A534664781B7807
:103B000080B21B1B9BB25B4340431B189BB2012B33
:103B100063D9F720FF264001834202D85E090836A8
:103B2000F6B2904601201A0003E0013BDEB2B0423B
:103B30000DD88419641025006543ADB2E3B2AA42E2
:103B4000F3D3FF2C4BD00133D8B2B042F1D90138B6
:103B5000C0B24246282815D90132102AC1D1634685
:103B60000133DBB29C46009B0A001033009363468E
:103B70001032062BB2D105B0F0BCBB46B246A94606
:103B8000A046F0BD2823181A031C80B2102800D9C3
:103B900010239BB20098805C1B18181C9BB2FF2B53
:103BA00000D9FF20009B98540132102A99D1D6E702
:103BB000019CD0B2A04299D1029B03989846404400
:103BC000035D20331C1CFF2B00D9FF24019B013215
:103BD000C454102A00D084E7C1E71023DAE7424634
:103BE0000132102A00D07CE7B9E7C046000C002063
:103BF0003C1600200378F0B54546DE4657464E4653
:103C00001A019A18D2B21400E0B511348BB0E4B2A4
:103C100090460290221C542C00D95422D2B29346D2
:103C2000029A9278002A00D083E0534F002B00D1F3
:103C300090E0524B05971E00039300230193504BD5
:103C4000103604934F4B07949A464F4B069334001B
:103C50004746059DB046103C07E0019B0133DBB2AF
:103C6000019301340135A0454AD02378BB42F8D3F3
:103C70005B45F6D2039A94466344029A0933FF33B4
:103C80001B7852781A42E8D02B781A00553A994698
:103C9000D343DB17134056225242D31A08AA13709B
:103CA000049B9B7853704B46AA331A1CFF2B00D9F8
:103CB000FF2253009B18049A0233D278DBB253439D
:103CC00008AA1B1293700898FEF708FF56460104D5
:103CD000030209AA090E1B0E1070517093707668CA
:103CE000DBB2C2B2C9B22078B047069B1B78002B6A
:103CF000B3D04B465A1E5B42DB1713402B70ACE728
:103D00004646224BB846B34206D0059B10361033C8
:103D10000593019B102B9AD953230020079CA342A3
:103D20004041C0B20BB0F0BCBB46B246A946A0466B
:103D3000F0BD144B00229B680021002098470E4FD5
:103D400060220021380006F06CF9029B1B78002BE2
:103D500000D06EE70E4E308802F02AFC1823834212
:103D60009B41094A5B421370182800D861E702F0B2
:103D700019FC30805DE7C0463C160020000C002096
:103D8000D01C002044B400009C160020600C0020D1
:103D90009E160020082210B518210348FDF752FE98
:103DA0000022024B1A7010BDD01C00200A16002001
:103DB00000207047F0B5DE4657464E464546E0B512
:103DC000714B8DB0DF7804007B00DB199A1039004D
:103DD0009B08FF2003939346FCF746FAC3B2079370
:103DE000A378002B00D0BCE0684B694D99461B7846
:103DF0006849D8460A78069101320A700022049276
:103E0000654A05950892654A019792460995049A74
:103E1000089E9446D2B293466644002B00D09AE0A6
:103E200006F0A0F85E4B984200DD94E00024059D6A
:103E3000019B2B70594620000AAAFFF7B9FF33787F
:103E4000FF2B03D00AAA13540130C0B2002815D0AA
:103E500052460AAB1B7852682878039917000293E0
:103E6000884221D94146019B401A4843591AFCF720
:103E7000FBF9C1B20B00019A0298B8474B460134D6
:103E8000E4B21B7810351036062C1FD02B78002B8F
:103E9000D0D0019A9A42CDD9069A079912788A42CF
:103EA000C8D1013B2B70C5E7019B41465843FCF745
:103EB000DBF90023C2B200210298B8474B46013417
:103EC000E4B21B7810351036062CDFD1049A059920
:103ED0000132013104920591102A98D1069A07996E
:103EE0001278019F099D8A4202D1002206990A7028
:103EF0000133DBB21C2B31D900234A461370294B06
:103F00001022002405209C46524260357E1E6346E6
:103F100007E0995CB94201D39E541F5501339D427D
:103F20000BD00528F5D119788F4200D11E70995C0D
:103F3000B942F1D201339D42F5D10138C0B2103AF5
:103F4000103C0028E3D100200DB0F0BCBB46B246C7
:103F5000A946A046F0BD0024059D97E74A46137088
:103F6000F1E70E4B00229B68002100209847084D86
:103F700060220021280006F054F8044B99460023E3
:103F80004A46137034E7C046D01C002009160020B2
:103F90003C16002008160020000C002044B400004D
:103FA000545555058C160020F0B557464E464546EB
:103FB000DE46E0B589B0070088461600FDF760F8D8
:103FC000002805D0002E0AD1514C2378082B4FD859
:103FD00009B0F0BCBB46B246A946A046F0BD06AB50
:103FE0001A00414638009946FFF7E2FE42460500B6
:103FF00048483B01C3189B5CFF2B03D04A465355EE
:104000000135EDB2424C23785B19082B67DC002D9B
:1040100023D023784A465D19E9B28A46B946B446A8
:104020001678E718310030314900455C411849786D
:104030007D707972190000250C3149006118013337
:104040007E74DBB24F1C4D7001327D705345E7D159
:104050004F4666462370002EBAD003222E4B1B78A3
:1040600093437C2BB4D141463800FFF71BFDAFE7EB
:104070000823059309330493013B03930933029307
:10408000103B0193013B9B4601210025234B5A46DF
:10409000994601235B424B449A464846514406F0F8
:1040A00011F8484601995A465144083006F00AF87A
:1040B00048460299039A5144183006F003F84846DE
:1040C00004995A461030514405F0FCFF5346059AB6
:1040D0001A70002DBFD006AB99460E4899E7082309
:1040E0005B1B9B4609239C46AC44634601936B00D3
:1040F000193302935B465B00039311239C46AC4447
:104100006346049308235B1BDBB2691C0593BDE780
:104110000C160020000C0020D01C00200D160020E2
:104120000120704710B5FFF7FBFF10BD012070475D
:1041300010B5FFF7FBFF10BDF0B5DE464E46574603
:104140004546E0B5CE4C8BB0206802F039FA834684
:1041500002F0DAF9CB4984460E782060002E2CD08C
:104160005B46C9483500C01A00239946FF33002436
:1041700098460CE05B449FB2BA4647463B405370BA
:10418000534601341B0A9370E3B29E4211D92200B8
:104190000C3252008A18937857781B023B438342B3
:1041A000E8D9012301349946013DE3B2EDB29E42C4
:1041B000EDD84B46002B00D00D7003221700B34EF4
:1041C00033781F401A423CD1B14C2378022B3DD0AA
:1041D000022B1AD8002B46D0AE4B1A780123BA42D4
:1041E0004DD0AD4DAB7073796A789A4206D06B7042
:1041F000AA4B0022002100209B6898472C2F00D951
:1042000008E2A74BBF00DB599F46032B12D1A54DF7
:104210002B78002B06D0082218213000FDF712FC65
:1042200000232B70A04B186802F0CAF90F2801D99F
:10423000002323700BB0F0BCBB46B246A946A04693
:10424000F0BD934C9F082378022BC1D1914B974A24
:104250001F7033789B079B0F1370904BDB68984758
:1042600003232370E6E78C4A9148137062468E4B15
:104270001A60292205F026FF01232370DAE733783C
:104280008A4A9B0712789B0F9B1A5A1E9341DBB2F6
:10429000A7E7AB78002B00D189E2804B00229B6816
:1042A00000210020984702222B7801332B70AB7835
:1042B0002270002BBED1D3E77E492800FEF7CCFD4B
:1042C0002A78531CDBB22B70002800D19AE12378A6
:1042D000022B00D198E110011018C0B20300113375
:1042E000191CDBB2542B00D95421C9B2FFF720FFAF
:1042F000A0E77149E1E771492800FEF77BFC2A78C5
:10430000531CDBB2DFE76E49D7E76E492800FEF7A2
:1043100025FD2A78531CDBB2D5E76B49F6E76B49DC
:10432000EAE76B492800FEF707FE2A78531CDBB248
:10433000C9E76849F6E76849F4E72800FFF760FA3B
:104340002A78531CDBB2BEE72800FFF7C1FA2A78AF
:10435000531CDBB2B7E72800FFF722FB2A78531C77
:10436000DBB2B0E75D49A8E75D49A6E75D482A787A
:104370008146531CDBB219015918C9B288464A4913
:104380000868039149460968884200D9B8E10020CD
:1043900053214646B1424041C0B294E7524A424896
:1043A000AB781168019202680390914200D926E12E
:1043B000002B00D137E1394B00229B6800210020FF
:1043C00098474A4BB0469946494B00949B46002378
:1043D0005E4600279A464C46AB4608E0534623709B
:1043E0006370A37001370334542F00D118E1338870
:1043F00002215A029A1892009B183E4A944663443E
:104400009BB21A0AD21833801142E7D15A029A1885
:1044100092009B18374A08A9944663449BB21A0A33
:10442000D2180A715A029A1892009B1863449BB2E0
:104430001A0A3380D318DBB25B087F334B714346D3
:10444000DB787D008B710998FDF796FE4B46ED19E0
:104450005855030400024D441B0E000E6B70A870EB
:10446000C0E7254A124B1878411E4042C017084049
:10447000C0B22900FEF7B8FE2A78531CDBB222E74F
:10448000381600200C160020FFFF0000D01C002072
:10449000680D00206F0D00206C0D002044B400005A
:1044A00088B300000A160020D81C0020700D0020E0
:1044B000DC1C002079220000E522000039230000E6
:1044C000AD22000069230000E92700005528000004
:1044D000FD2300004924000095240000492A000023
:1044E000F924000004160020001600200415002006
:1044F000A40E002019360000D5260000D24A29005B
:104500000020FEF771FE2A78531CDBB2DBE6CF4AAF
:10451000A8E72800FFF7F4F82A78531CDBB2D2E6AC
:10452000CB49CAE6CB49C8E6CB49EFE6CB49EDE635
:10453000CB49E1E6CB49DFE6CB49BEE62800FEF7F2
:1045400055FF2A78531CDBB2BDE62800FEF7A0FF1A
:104550002A78531CDBB2B6E62800FFF70DF82A785C
:10456000531CDBB2AFE62800FFF768F82A78531C2B
:10457000DBB2A8E6B54AC2E7BC492800FEF78CFDCD
:104580002A78531CDBB29EE6B949F6E7B94A69E7D7
:10459000B84AB4E7B84A65E7B74AB0E7B74A61E74F
:1045A000B64AACE72800FFF725FB2A78531CDBB29C
:1045B00089E62800FFF7FEFB2A78531CDBB282E66F
:1045C000AB78002B05D0AE4B0022002100209B6869
:1045D00098472A78AB4F531CDBB219015918C9B25E
:1045E0000491A949086803913968884200D9E2E03A
:1045F00000205321049EB1424041C0B263E62B78B3
:1046000001332B7002232370FFF78CFD2A78013AC7
:10461000D2B260E62B7801332B7002232370F3E7CC
:1046200046465D46009C2B781A019B18DBB21A00A7
:104630001132D2B29246542A00D95422D2B29346B1
:10464000934222D21F005B00DB1999468F4B904AA0
:1046500000938B4B914402932300B0464C462E00AE
:104660009946009B7278DB5D1A4206D00298A378C7
:104670004568227838006178A8470137FBB20334D7
:104680009B45EED835004C4646465346532B2DD914
:10469000804FF922FB1E39001800984605F0AEFC49
:1046A0007D490B885A029A1892009A187B4B9C46B7
:1046B000624492B2130A9B180A809B0700D462E1FD
:1046C0000023F92241468B5401328B523279103249
:1046D000131CFF2A00D9FF239BB219097048FBF76E
:1046E000C3FD039B1B68C018019B186053235246EF
:1046F0000020934240412A78C0B2531CDBB2E2E56D
:1047000065498B46098858464F02CF19BF00C91921
:10471000624FBC46614489B2018054200F0A7F1861
:10472000FFB2474359483F12385C009784466746BA
:104730006878384200D12AE60B005849594A8C461D
:104740005946534363449BB20B80190AC918890721
:1047500000D4FEE0002308A90B808B700898FEF7B8
:10476000BDF902001104130209A8090E1B0E027004
:10477000417083704248DBB24068D2B28246C9B20F
:104780000098D04732791032131CFF2A00D9FF233A
:10479000FA209BB219094000FBF766FD039B2A78BB
:1047A0001B68C0184B461860531CDBB2EFE52B7832
:1047B00001332B7054E5B3787278F0781B02134301
:1047C00000041843FEF78AF9030209AA1B0E93702E
:1047D000DBB201932A4B01045B68090E9846324B09
:1047E00010709946314B517002932B4BC2B29B46CD
:1047F0002B00454698469246CAB200920597069607
:1048000007944B46029EDC1F37000FE05246019B87
:104810000099A8475246F87B019B0099A847637806
:10482000013623700134013FA14541D0237830780F
:10483000002BEBD1002300220021A84700230022F7
:104840000021F87BA847EAE7D52600001D270000D5
:10485000A5210000FD2100005D270000C9280000FF
:1048600045290000D1290000552200004125000003
:1048700071250000A1250000E52500005926000053
:1048800044B4000000150020D81C0020080D0020B2
:104890000415002007150020A40E00201936000082
:1048A000B80B000005080000D7140020000C002001
:1048B0004B46029C1B78E079002B3FD0019F009E65
:1048C0003B0052463100A8473B0052463100207A57
:1048D000A8475B461B885A029A1892009B183F4AC9
:1048E00094465A4663449BB213801A0AD318032293
:1048F00013405A4253414A46137008239C46029B78
:10490000E14410330293364B4B4500D079E7069EC5
:1049100045463279059F1032079C131CFF2A00D9A7
:10492000FF239BB219092F48FBF79EFC039B2A78B3
:104930001B68C018531C3860DBB259E60023002204
:104940000021A847029B0022187A00210023A847D3
:10495000BFE7224953438C4663449BB2180A8446FE
:104960009C4453431D4A604694465A4663449BB256
:1049700013801A0AD318DBB25B0808A97F330870CA
:104980004B70F378E9E61548174B84465A43624466
:1049900090B29946030A9C468444634609AA137060
:1049A0004B4643430D48F637844663449BB20B8025
:1049B000190ACB18DBB25B087F335370F37893701E
:1049C0000998FDF7D9FBF9234246D05403040002AD
:1049D0001B0E000E7B70B87078E6C04619360000DA
:1049E00007150020B80B00000508000070B5002472
:1049F000174B1B68984717481022FF210470193085
:104A000005F00FFB14481022FF210470193005F047
:104A100008FB0123114D124E082218212800337083
:104A2000FDF780F82B783470032B00D970BD352347
:104A300003220C49681C2B7005F044FB81230822DB
:104A40005B4218212800AB80FCF7FCFF3470EDE7D7
:104A500044B40000DC1C00200C160020D01C0020F8
:104A60000A160020A4AE00007047C0460121044A87
:104A700013784B4013700022024B1A707047C046E7
:104A8000D01C0020680D00200121064B1A784A40F6
:104A90001A700022044B1A70044A13780B431370E7
:104AA0007047C046D01C0020680D00200A16002068
:104AB00003210800064A13781840194201D1054B1A
:104AC0001870032113788B4301210B431370704737
:104AD000D01C0020680D0020054B1A78920702D0E8
:104AE0000021044A117003211A788A431A70704712
:104AF000D01C0020680D0020024B18788007800F22
:104B00007047C046D01C00200B490B789B070BD088
:104B10000123002809D19A00032308780340134396
:104B200000220B70054B1A7070472B332C28F2D8DB
:104B300013330340EFE7C046D01C0020680D00206F
:104B40000D490B789B0710D0012300280ED19A0045
:104B5000032308780340134300220B700121074B05
:104B60001A70074A13780B43137070472B332C28A5
:104B7000EDD813330340EAE7D01C0020680D002075
:104B80000A160020014B187880087047D01C0020BE
:104B90000C4A10B513789B0801332C2B00D9012344
:104BA0000320040011780C4008420AD09B001C43EB
:104BB000147000220121044B1A70044A13780B432D
:104BC000137010BDD01C0020680D00200A160020B4
:104BD0000F4A13789B08013BDBB2002B00D12C332A
:104BE0001178890710D0191C2C2B0ED803231078AC
:104BF000890003400B43137000220121054B1A70FA
:104C0000054A13780B43137070472C21EEE7C0461A
:104C1000D01C0020680D00200A160020044B10B59F
:104C20001C78A40702D058709970DA7010BDC04685
:104C3000D01C0020014B58787047C046D01C002083
:104C4000014B98787047C046D01C0020014BD878A3
:104C50007047C046D01C0020064B1A78920707D038
:104C600001215A7808325A70034A13780B431370A3
:104C70007047C046D01C00200A160020064B1A7848
:104C8000920707D001215A78083A5A70034A1378DC
:104C90000B4313707047C046D01C00200A1600203A
:104CA000084B1A7892070AD09A781032111CFF2A02
:104CB00006D899700121044A13780B43137070478A
:104CC000FF21F6E7D01C00200A160020074A1378BF
:104CD0009B070AD091781039CB43DB170B40012199
:104CE0009370034A13780B4313707047D01C002055
:104CF0000A160020084B1A7892070AD0DA78103288
:104D0000111CFF2A06D8D9700121044A13780B43DD
:104D100013707047FF21F6E7D01C00200A16002010
:104D2000074A13789B070AD0D1781039CB43DB1799
:104D30000B400121D370034A13780B431370704763
:104D4000D01C00200A160020014B18717047C04685
:104D5000D01C0020014B18797047C046D01C0020A1
:104D6000064A13791033191CFF2B00D9FF2111714A
:104D70000121034A13780B4313707047D01C0020A5
:104D80000A16002006490A79103AD343DB1713406C
:104D90000B710121034A13780B4313707047C0460F
:104DA000D01C00200A160020F0B5DE4657464E46BD
:104DB0004546E0B585B0824603F008F9654B1878A2
:104DC0009B460130C0B21870122800D177E0624DC6
:104DD00003210395FBF73EFA2C78CBB22100022B7E
:104DE00002D1611CC9B22970062900D171E00529E0
:104DF00000D871E0594B019300239946584B002489
:104E00000293584D0B000AE0022B53D04246504605
:104E100003F0BEF80134102C2DD0039B1B78029AAE
:104E20001B01944663441A5D5300991869188978E8
:104E30008846002901D00121894699186F5C002F0E
:104E400001D0012189469B18EB185E78002E01D015
:104E5000012399465B4603211878FBF7FBF9019A79
:104E6000CBB2115D012BCFD13A005046013403F093
:104E70008FF8102CD1D14B46002B0BD05A4612780C
:104E8000394B9200D2580F2311009943134001224D
:104E90009A404A6272B65346344A9B6950465A60F9
:104EA00004F060FD62B605B0F0BCBB46B246A94650
:104EB000A046F0BD3200504603F06AF8AAE700238E
:104EC0005A461370244B197803930C00062900D01E
:104ED0008DE70023039A1370204B254E1F001D0001
:104EE0000193103729783000013503F05DF8AF42A7
:104EF000F8D11D4A0F211600012548362F0008CA97
:104F000018000B409F40884387629642F6D1039B6E
:104F1000184E19783378DAB2002B00D06CE7164BB4
:104F2000187800280ED1154A1D7011701B78002BBF
:104F300000D161E71248FCF793FC01233370039B17
:104F4000197859E7A142F1D00C4800788842EDD198
:104F50001A70EBE7AD180020AC180020B018002044
:104F6000000C0020A017002094B40000FFFF0000F8
:104F7000F41D00209C1800209D180020A016002081
:104F8000A01800201323013B002BFCD17047C04622
:104F9000014B1878C0B270479C180020F8B5482320
:104FA000454657464E46DE469946473BE0B598464D
:104FB0000F27294DA94410CD062226003C40BE43B0
:104FC0002100300003F0D0FB4346A340B3624D45BF
:104FD000F1D140239946214B0F279A46204B214D72
:104FE000984617239B46204EA9442B68434519D861
:104FF0001E4A1C009446BC436444640B3B4024019D
:10500000E418E4B220001821FBF724F9A345A441D9
:105010000222C9B24B005B189B00534464423170BA
:105020001C75DA6004350136A945DED10022104C2A
:10503000104B514620001A605A609A6002F098FFA7
:1050400052460D4B2000936002F0BAFFF0BCBB4605
:10505000B246A946A046F8BD94B40000740D0020E5
:105060000F80044054B40000B018002000C0FBBF03
:10507000F41D0020A0180020A94D000010B5064C1A
:105080002378002B06D0FC220448054905F01AF8C5
:105090000023237010BDC046A1160020A0170020D9
:1050A000A4160020F0B5C6460D4D44002718EE1991
:1050B0009046727800B58A420BD024182819837064
:1050C000434601222B55074B41701A7080BCB846ED
:1050D000F0BDB6789E42F0D1EE5D4645EDD1F5E7E4
:1050E000A4160020A11600200F4B70B51D0000264D
:1050F000FC3506E058709A701970033301269D4202
:105100000BD05C788442F5D19C789442F2D11C7823
:105110008C42EFD103339D42F3D1002E02D0012205
:10512000024B1A7070BDC046A4160020A1160020C4
:10513000F8B50E4D2B78DCB2002B0ED00C4F0D4E77
:105140000C223900300004F04BFF0400631E9C4128
:10515000E4B2002803D100232B702000F8BD0C22FC
:105160003900300004F0AEFFF5E7C0469C1800207F
:10517000A0180020B41C002010B5002801D09047D2
:1051800010BD8847FCE7C04670B54D790400002D7E
:1051900002D00125280070BDFBF78EFE22231840A7
:1051A000274B9C466444A4B2142CF2D8254BA4008F
:1051B0001B599F461220FFF7C3FCEBE7FFF764FC87
:1051C000E8E7214A2149FFF7D7FFE3E71F4A1E49D5
:1051D000FFF7D2FFDEE71E4A1E49FFF7CDFFD9E7F2
:1051E0001C4A1B49FFF7C8FFD4E71B4A1B49FFF7BE
:1051F000C3FFCFE7194A1849FFF7BEFFCAE7184AAD
:105200001849FFF7B9FFC5E7164A1549FFF7B4FF7C
:10521000C0E7154A1549FFF7AFFFBBE7134A12492C
:10522000FFF7AAFFB6E70120FFF78AFCB2E70520E7
:10523000FFF786FCAEE70D20FFF782FCAAE7C04629
:10524000E087FFFFDCB40000D14B0000914B000071
:105250007D4C0000594C0000CD4C0000A14C0000DA
:10526000214D0000F54C0000854D0000614D00000F
:10527000F0B5CE4647468C4680B584449146984664
:1052800089B060454DD243464A468046414609783A
:10529000DF0051400C000902079100210691E10E48
:1052A00089465901019149460198E6000843610188
:1052B0000091610F0F431D0032003B0012196B413A
:1052C00092185B4101900098019912184B41610EB0
:1052D0008946484612196B41E90101430391E101F6
:1052E00002910298039912184B41210E89464846B3
:1052F000290201430591210204910498059912188D
:105300004B410698079912184B4101218946C84420
:10531000C445BBD11000190009B0C0BCB946B046A5
:10532000F0BD4A464346F5E710B5FBF75FF810BD00
:105330000120704710B5FFF7FBFF10BDF8B54746D9
:10534000CE46012480B52700264B274E98461B6881
:1053500005009B099F43254B390099461B78377000
:10536000BB4229D100281BD019000020FFF7DCFF29
:1053700043461B6821005B09DA439943717002239D
:10538000520013401F430120FFF7CEFF3800FFF704
:10539000D1FF4A4633881380C0BCB946B046F8BD39
:1053A000434621001B685B099943DA434B46717001
:1053B0005B788B42F0D0E2E70020FFF7B5FF434671
:1053C00021001B685B09DA43994302235200134012
:1053D0001F434B4671705B788B42D4D1002DD5D0E2
:1053E000D1E7C04600A00440C4180020C018002027
:1053F00010B5074C03222000062103F0B5F9032263
:105400000521200003F0B0F90120FFF797FF10BD40
:1054100000A0044010B50020FFF790FF10BDC0466B
:1054200004207047030070B50020032B16D805290F
:1054300014D80F2A12D8490152008C185A00D318D8
:105440009B01E41820002930FCF7DCFA050220005B
:105450002A30FCF7D7FAADB2284380B270BDC046FF
:1054600070B51D00032814D8052912D80F2A10D8AA
:105470004300490152001B188C189B01E4182000BE
:10548000290A2930FCF7FCFA2000E9B22A30FCF79F
:10549000F7FA70BDF8B50023DE4657464E4645463E
:1054A0009B46E0B55B46DBB298465B465B005B44DF
:1054B0009B019A46002399464B4656460025DFB28B
:1054C0002936EAB239004046FAF7A8FF0400010A7B
:1054D000C9B23000FCF7D4FA0135701CE1B2FCF718
:1054E000CFFA0236102DECD101239C461F33E14444
:1054F0009C464B46E244062BDED101239C46E34406
:105500005B46042BCED1F0BCBB46B246A946A046B2
:10551000F8BDC046F0B5C64629300F00160005009C
:1055200000B500291AD0C0239B000024984606E04D
:105530000134A4B2307001350136A7420ED02B00E1
:10554000293B00204345F3DA2800FCF75BFA0134DD
:10555000A4B2307001350136A742F0D180BCB84604
:10556000F0BDC046F0B5C64629300F001600050054
:1055700000B5002918D0C0239B000024984605E000
:105580000134A4B201360135A7420DD02B00293BCE
:105590004345F5DA013428003178A4B2FCF770FAFB
:1055A00001360135A742F1D180BCB846F0BDC046F6
:1055B000030010B50020032B03D8052901D80F2ABA
:1055C00000D910BD1800FFF72DFFFAE71020704733
:1055D00077207047F8B50F4B0F001600C51800294B
:1055E00017D0002406E00134A4B230700135013632
:1055F000A7420ED0084B0020EB18762BF3DC2800D6
:10560000FCF700FA0134A4B2307001350136A7422C
:10561000F0D1F8BD29030000D7FCFFFFF8B50E4B11
:105620000F001600C518002915D0002405E001342C
:10563000A4B201360135A7420DD0084BEB18762BEA
:10564000F5DC013428003178A4B2FCF719FA0136F0
:105650000135A742F1D1F8BD29030000D7FCFFFFB7
:1056600070B5E825044CAD00200000210134FCF7A2
:1056700007FAAC42F8D170BD29030000F0B5C64668
:1056800000B5050082B00F2803D902B080BCB8462F
:10569000F0BD2E48FCF7B6F90028F6D1E8262C4CD0
:1056A000B600002D02D10BE0B442EED02000FCF792
:1056B000A9F901340028F7D1013DEDB2002DF3D155
:1056C00008220021684604F0ACFC002704E06421B5
:1056D000684600F0D1F92C002000FCF793F96B46E6
:1056E000651C18705F700028CFD00128EFD128000A
:1056F000FCF788F96B46A61C58700028C5D0431EDD
:10570000022B12D935000428E1D1E31D6D469846DD
:105710003000FCF777F90136A8700028B5D07C2856
:105720000DD001354645F3D1AFE73000FCF76AF9FB
:105730006B46E51C98700028A7D0DF70C7E70023F0
:105740006A46341B35001355C1E7C0469F0300006D
:1057500029030000154A10B501230C00904201D026
:10576000180010BDFBF7A8FB6379002B12D0AA2309
:1057700018400200511E8A410D4B1A704342584195
:105780000B2340429843353000F050FDFBF780FB7F
:105790000023E5E7064B1878434258410B2340426B
:1057A0009843353000F07CFDF0E7C046167C0000E1
:1057B000C618002070B504004879002804D0854B35
:1057C000E318222B02D970BD0120FCE7FBF72CFC6B
:1057D000814D824B2880E01880B2212800D9F3E067
:1057E0007F4B80001B589F4608226B7893436B7059
:1057F0002888FBF71FFCFBF735F90020E3E70822B8
:105800006B7813436B70F3E70020FBF719FCEFE7AD
:105810000120FBF715FCEBE7012001216B78DA078B
:10582000D20F42400A408B4313435100022293435C
:105830000B436B70DCE703226B7893436B70D7E705
:1058400003226B78934313436B70D1E702226B788A
:1058500093436B70CCE702226B7813436B70C7E7FE
:1058600001226B7893436B70C2E701226B7813437C
:105870006B70BDE701212B7804205A07D20F4A40F4
:1058800001210A40910083430B430821D2008B433E
:1058900013432B70ACE70C222B7893432B70A7E7B4
:1058A0000C222B78934313432B70A1E7FBF7DAF814
:1058B00001232978CA095A407F23D2010B401343A0
:1058C0002B7095E7FBF7CEF87F232A7813402B70D7
:1058D0008EE7FBF7C7F880232A785B4213432B70CF
:1058E00086E701222B785906C90F514001220A4050
:1058F000402192018B4313432B7079E740222B7890
:1059000093432B7074E740222B7813432B706FE77F
:1059100020222B7893432B706AE720222B781343A5
:105920002B7065E701222B78D906C90F514001225F
:105930000A40102112018B4313432B7058E71022A9
:105940002B7813432B7053E710222B7893432B7043
:105950004EE708222B7893432B7049E708222B78D7
:1059600013432B7044E704222B7893432B703FE7BB
:1059700004222B7813432B703AE702222B7813432F
:105980002B7035E702222B7893432B7030E70120F0
:1059900001212A78D307DB0F43400B408A431A4387
:1059A0002A7025E701222B7893432B7020E70122F0
:1059B0006B781907C90F514001220A400821D20013
:1059C0008B4313436B7013E701222B7813432B7027
:1059D0000EE7C0460090FFFFB01C0020FF8FFFFFC6
:1059E00030B60000204AC108030070B5165C0720DD
:1059F00018401E4B01225D5C1D4B05415C5C1D4B3C
:105A000004415B5C1540034114401A4216D1002D3D
:105A100005D13000FAF7CEFE002C0BD170BDE62088
:105A2000FAF74EFE3000FAF7C5FEE620FAF784FEDC
:105A3000002CF3D02C20FAF7BDFEEFE7E120FAF7B7
:105A40003FFE002D06D13000FAF7B4FEE120FAF750
:105A500073FEE1E7E620FAF733FE3000FAF7AAFE1C
:105A6000E620FAF769FEF1E7B8B6000048B7000093
:105A700038B7000058B70000F0B5C64600B50600BC
:105A800000780F0000281CD04B1EDBB2984601287E
:105A90001AD17378012B1BD0022B1ED0032B21D0DF
:105AA000042B24D0751C44466E1C002F06D0013CEC
:105AB000BC20E4B201F036FFFF2CF8D16878002852
:105AC000E5D180BCB846F0BDFFF78CFF3500EAE7B2
:105AD000B078B51CFAF76EFEE5E7B078B51CFAF7BA
