:100000000004002091010000217A0000930100000B
:100010009301000093010000930100009301000090
:100020009301000093010000930100009301000080
:10003000930100009301000093010000859A0000E5
:10004000930100002189000093010000930100004A
:100050009301000093010000930100009301000050
:100060009301000093010000930100009301000040
:100070009301000093010000930100009301000030
:100080009D9900009301000093010000930100007E
:100090009301000093010000930100009301000010
:1000A0009301000093010000930100009301000000
:1000B00093010000930100009301000093010000F0
:1000C00072B6244880F30888234880F30988022008
:1000D00080F31488BFF36F8F07F0C8F806F060FE56
:1000E0001E481F491B4A914202DA08600431FAE7B0
:1000F0001C49194A914202DA08600431FAE71A49A8
:100100001A4A1B4B9A4204DA086810600431043220
:10011000F8E700201749184A914202DA08600431D2
:10012000FAE707F0A9F807F0A3F8144C144DAC4215
:1001300003DA216888470434F9E702F0EFF9114C3B
:10014000114DAC4203DA216888470434F9E70F49BE
:100150000847000000040020000C002055555555AC
:10016000000000200004002020BE0000000C002041
:10017000781000207810002080180020C0000000B7
:10018000C0000000C0000000C00000007572000048
:1001900096E700F000F8FEE7F0B544464D465646B7
:1001A0005F46F0B46B46CB60C3689D46F0BCA0468A
:1001B000A946B246BB46F0BD62B6281CA047002047
:1001C00007F084FBFEE707F04DFB024A024B136089
:1001D000FEE7C04604ED00E000000080002934D0B6
:1001E0000123002210B488422CD301242407A14209
:1001F00004D2814202D209011B01F8E7E400A142C6
:1002000004D2814202D249005B00F8E7884201D360
:10021000401A1A434C08A04202D3001B5C08224338
:100220008C08A04202D3001B9C082243CC08A042A9
:1002300002D3001BDC082243002803D01B0901D095
:100240000909E3E7100010BC704701B5002000F079
:100250005FF802BD0029F8D003B5FFF7C1FF0EBC5F
:100260004243891A1847C046002941D010B40400FF
:100270004C40A44601230022002900D54942002811
:1002800000D5404288422CD301242407A14204D245
:10029000814202D209011B01F8E7E400A14204D225
:1002A000814202D249005B00F8E7884201D3401A3C
:1002B0001A434C08A04202D3001B5C0822438C085E
:1002C000A04202D3001B9C082243CC08A04202D3C8
:1002D000001BDC082243002803D01B0901D00909B8
:1002E000E3E710006446002C00D5404210BC704784
:1002F00001B5002000F00CF802BDC0460029F7D07F
:1003000003B5FFF7B3FF0EBC4243891A1847C04636
:100310007047C046002B11D1002A0FD1002900D10F
:10032000002802D00021C943080007B4024802A1F6
:100330004018029003BDC046D9FFFFFF03B46846D2
:1003400001B5029809F098FC019B9E4602B00CBCD6
:100350007047C046D0400B00D1409C46203AD34065
:10036000184352426346934018437047914003003C
:1003700090409C46203A9340194352426346D340F2
:10038000194370471C2101231B04984201D3000C20
:1003900010391B0A984201D3000A08391B099842F8
:1003A00001D30009043902A2105C40187047C0460E
:1003B000040302020101010100000000000000002E
:1003C00010B5002903D1FFF7DDFF203002E008005F
:1003D000FFF7D8FF10BDC04603B47146490840007E
:1003E0004900095E49008E4403BC70477047C0460F
:1003F00010B5FFF7FBFF10BD7047C04610B5FFF703
:10040000FBFF10BD014B4000185A704788150020B3
:100410007047C04670B50E4C0F25260040362900A7
:1004200001CC03220140A84308F034F9B442F6D1CC
:100430000C220021074809F0E1FC0C2200210648AB
:1004400009F0DCFC062002F02BF800F011F970BD79
:1004500084AC00007C15002088150020164BF0B5F8
:10046000C64698460023424600B51370134A10272B
:100470001600944612480C36624601000C88158816
:10048000A54201D00123148002320231B242F5D1DB
:10049000013FFFB2002FEFD1002B02D001224146D5
:1004A0000A700622074901F0FDFF00F0EBF8434611
:1004B000187880BCB846F0BD781000207C10002071
:1004C0007C15002088150020274BF0B5D6469A46AB
:1004D0008B004F46994653464A4646469B58C0B500
:1004E0001D000F27BD431F4004000E0006223900E7
:1004F000280008F0CFF80123BB40AB626423013B26
:10050000002BFCD17600A21990460F250127A45B91
:10051000164805E034430133A4B20430102B0ED04A
:1005200002683E001100A94309682A40D1409E405C
:100530000F42EFD10133B4430430102BF0D14346C6
:100540004A461C80534698580F2319000322014045
:10055000984308F09FF86423013B002BFCD1E0BCDA
:10056000BA46B146A846F0BDC4AC000084AC000059
:1005700010B5002804D1002904D0023000F0FEFD9F
:10058000012010BD002000F0F9FDF9E77047C046DA
:10059000012070470120704710B5FFF7FBFF10BD29
:1005A0007047C04610B5FFF7FBFF10BD10B5124BEA
:1005B00082B01B780090002B0FD16B469B78002BEC
:1005C00001D0002A10D1009800F060FE0400200045
:1005D000009905F06DFC02B010BD009800F0F8FE27
:1005E000009905F065FCF6E700F0F2FE040001005A
:1005F000009800F025FEEAE78810002001207047EF
:1006000010B582B0010004000622684609F048FCDB
:100610000A4B00981B78002B09D100F037FE009997
:1006200005F046FC2100FFF7BDFF02B010BD00F051
:10063000CFFE009905F03CFCF4E7C046881000208E
:1006400070B50124094B1D782300834020008840A9
:100650000343D9B294402B40994204D02800A043D0
:1006600000F076FD70BD2543E8B2F9E7B010002038
:1006700010B501F0F3FE00F049F904F0B3FBFFF709
:10068000B7FE10BD10B5002005F0F8FAFFF7B6FE72
:1006900010BDC0467047C04670B50400038840884E
:1006A000A188000401221843FFF780FF2100050004
:1006B00005F0C2F8002801D1002070BD21002800FB
:1006C000FFF76AFF0028F7D02100280005F054FD4D
:1006D0000028F1D02100280005F09CF90028EBD07B
:1006E0002100280005F0AAFC0028E5D02100280000
:1006F00004F0A4FF0028DFD0A378002B15D0154B01
:100700009D4220D009D85B3BFF3B9D4211D0124B4C
:100710009D420AD101F044FBCEE7104B9D4215D01B
:100720000F4B9D4201D101F0ADFA2000FFF730FFE1
:10073000C3E700F075FCFFF7ADFF002007F0DEF81F
:1007400005F0C6FFB8E701F079FAEEE701F088FAA4
:10075000EBE7C0465A5D0000DE5C00005B5D000018
:100760005C5D00007047C04610B5FFF7FBFF10BD91
:1007700010B505F077FD00F0D5F8002004F088FBF7
:10078000FFF7F2FF10BDC046204AC108030070B554
:10079000165C072018401E4B01225D5C1D4B054175
:1007A0005C5C1D4B04415B5C1540034114401A42E4
:1007B00016D1002D05D1300000F004FC002C0BD127
:1007C00070BDE62000F03CF9300000F0FBFBE620B5
:1007D00000F03CF9002CF3D02C2000F0F3FBEFE705
:1007E000E12000F02DF9002D06D1300000F0EAFBE9
:1007F000E12000F02BF9E1E7E62000F021F93000DC
:1008000000F0E0FBE62000F021F9F1E7DCAF0000AA
:100810006CB000005CB000007CB00000F0B5C646D3
:1008200000B5060000780F0000281CD04B1EDBB27C
:10083000984601281AD17378012B1BD0022B1ED0A9
:10084000032B21D0042B24D0751C44466E1C002F92
:1008500006D0013C0020E4B207F050F8FF2CF8D19C
:1008600068780028E5D180BCB846F0BDFFF78CFF62
:100870003500EAE7B078B51C00F0A4FBE5E7B078F6
:10088000B51C00F0DDF8E0E7B078B51C00F0DEF84C
:10089000DBE7B1780D48B51C425C1342D5D000238C
:1008A00004249A00D31830395B000135CB1829781D
:1008B000425C1442F5D1002BC7D01C000020013C43
:1008C00007F01CF8002CF9D1BFE7C04615BD0000A9
:1008D00010B50021FFF7A2FF10BDC0467047C0460B
:1008E00010B5FFF7FBFF10BD0120704710B5041CC9
:1008F000FFF7FAFF002804D01022034BA40701D50C
:100900005A6210BD9A62FCE700A0044010B5044C86
:1009100006220421200007F0BDFE1023A36210BDB3
:1009200000A0044010B50400FFF7DAFF201CFFF719
:10093000DDFF10BD031FDBB270B50400A02B18D97A
:1009400003002033DBB2072B09D903005B33DBB292
:10095000022B1CD95834E4B2162C24D970BD0723BD
:10096000034001209840C0B201F08AF801F0E8F895
:10097000F4E7104D2100286805F0DEFC00280BD1BB
:100980002100286805F004FD01F0DAF8E6E7243CD0
:10099000A0B205F08FFCE1E72100286805F02AFDF0
:1009A00001F0CEF8ECE7044B6400E05A05F094FC4B
:1009B000D4E7C046600D002060B1000070B586B07D
:1009C000030C04AC8DB2009001910490DBB2A180C5
:1009D000002D12D0002B19D102AE062221003000CA
:1009E000E38009F05DFA3288114B9A4208D020006A
:1009F000FFF704FE002807D002E0002B06D1E380B9
:100A00000498616800F090FF06B070BD01F05EF8D8
:100A10000023E380009B02AE04936B469B88062272
:100A200021003000A38009F03BFA002DE8D0DAE77E
:100A3000FFFF000010B5008800F0F4FC10BDC046B8
:100A400010B5002801D0FFF775FF10BD010010B5EB
:100A5000002814D0031FDBB2A02B11D903002033D0
:100A6000DBB2072B17D903005B33DBB2022B0ED9A5
:100A70005831C9B2162902D8002005F02DFC10BD4E
:100A80000A4B186805F0B6FC01F05AF8F7E70020A9
:100A900005F010FCF3E70723034001209840C0B2A3
:100AA00000F0F6FF01F04CF8E9E7C046600D0020C9
:100AB000F0B54646D6464F468379C0B51B090C1C97
:100AC00005009846877800F0CBFF2604002801D067
:100AD000002F2BD1330F0F2B23D8BC4A9B00D358A8
:100AE0009F46002399462205120FE1B2280001F02B
:100AF00077FA00F0C5FC4B46002B12D000F0A8FF9F
:100B000001231A00024003420BD1AA7000F098FFA3
:100B100000F042FB280000F01BFA00F091FF00F00B
:100B20004BFBE0BCBA46B146A846F0BD0F22330EDF
:100B30009343402B04D023002033DBB2072BC9D9C9
:100B4000A34B5B785B07C5D4022001F055F800F099
:100B500087FF01235840C3B29946330F0F2BCAD8E1
:100B60009C4A9B00D3589F460023994623051B0FA0
:100B70009846360E0F2E01D91B019846E4B2002F7D
:100B800000D12BE14346002B00D1B7E023002033F6
:100B9000DBB24046072B00D870E1002C00D09CE16E
:100BA00000F06EFF00F0CCFFA5E700239946230577
:100BB0001B0F9A460F23360E9E43202E02D053461B
:100BC0001B019A46E4B2002C00D1E6E0012C00D1D2
:100BD0009BE04346002F00D13DE1002B00D19AE07D
:100BE000AA79D30700D48CE00F231340AB7153468E
:100BF000002B00D17FE75046D2E700239946E6B2AA
:100C000033001033DBB2042B00D907E1724A9B009A
:100C1000D3589F4600239946E6B22405240F002F9F
:100C200000D0C6E0002E00D07EE0200000F0C4FA24
:100C300005F018FBFFF776FE5DE7002399462305D4
:100C40009B0F00D1A2E0012B00D054E7002F00D170
:100C50000CE1A005800D05F03FFB4CE70023994611
:100C600022052800120FE1B201F0BCF943E700238E
:100C70009946B601B60F1ED1002FD9D123065B0FBE
:100C80009B002007DBB2000F9840C0B2E20604D5FB
:100C90000F229A40D3431843C0B22405A40F022C5C
:100CA00000D122E1032C00D11CE1012C00D11FE175
:100CB00000F030FABCE7A3059A0F002F31D1012ACA
:100CC000B6D923065B0F9B002007DBB2000F9840CC
:100CD000C0B2E20604D50F229A40D3431843C0B2F3
:100CE0002405A40F022C00D10BE1032C00D105E157
:100CF000012C00D1FFE000F089FA99E7002C00D127
:100D0000F9E62000FFF716FEF5E64346002F78D0FF
:100D1000052B00D9EFE65346002B00D1EBE65046F9
:100D20003EE7D207CDD483E7300000F0B1FE00F0FB
:100D300007FF7AE7264B5B785B0700D4A7E0E40463
:100D4000E00E002F0ED000F027FA71E7002F00D13F
:100D5000C0E0E004C00E00F011FA69E7E004C00E44
:100D6000002FF0D000F028FA62E7E004C00E002F58
:100D7000F8D0E8E74346002F00D184E0042B00D9E7
:100D800056E7E004C00E00F025FA51E7002F71D0BD
:100D9000A005800D05F08EFAADE60D4B5B785B0784
:100DA00049D55346002F30D0002B00D1A3E6504642
:100DB000F6E6200000F0F0F9002E00D138E7300010
:100DC00000F05EFE00F0BCFE32E7C0468CB00000D2
:100DD00094150020CCB000000CB100002000FFF7FB
:100DE00035FE4346002B00D185E623002033DBB2DD
:100DF0004046072B02D9002C00D090E000F048FEBE
:100E0000D0E6042B00D976E65346002B00D172E6DB
:100E1000504600F03DFE00F093FE6CE64346002F86
:100E200041D0002B00D181E0002E00D100E730003E
:100E3000FFF780FDFCE64346002F3FD0002B01D09A
:100E4000012B79D000F05EFE53461843C0B2002853
:100E500000D150E6A4E6002BD6D0392C62D0012078
:100E600006F04CFD2000FFF7F1FD44E6002005F000
:100E700033FA40E6002005F01DFA3CE600F000FEE3
:100E800000F05EFE3DE7052B00D9D1E679E7002FA3
:100E90003AD0E404E40E200000F07EF903212000A3
:100EA00000F090FEC4E6002B43D0392E4CD0012038
:100EB00006F024FD3000FFF7C9FDB9E6002B02D093
:100EC000012B00D117E600F069FE5346002B00D13C
:100ED00011E69DE700F046F9AAE600F0E7FD00F014
:100EE0002FFE0EE700F000F9A2E600F01FF99FE6E2
:100EF00000F004F99CE600F07DF999E600F028F98D
:100F000096E600F08FF993E6012000F075FE434667
:100F1000012B00D88CE6022000F06EFE88E600F07F
:100F2000CDFD3FE6002006F0E9FC9BE7E004C00EA3
:100F300009E7E004C00E15E700F0E4FD534618434E
:100F4000C0B200F0EBFDD6E5002006F0D7FCB1E71B
:100F500030B5040083B001000622684608F0A0FF07
:100F6000A388002B19D06B461A88144B9A4214D0D0
:100F70002000FFF791FB002811D02188A07800F015
:100F8000A5F9051C00F05AF900F0ACF82000291C66
:100F9000FFF78EFD2000FFF733FB03B030BD00F0FC
:100FA0005FFD0028F9D0A378002BF6D0044B5B78C6
:100FB0005B07F2D4022000F01FFEEEE7FFFF000007
:100FC0009415002070B50500392805D000280FD1F0
:100FD0002800FFF73BFD70BD3920FFF7ABFC502424
:100FE000013C0020A4B206F089FC002CF8D1EFE708
:100FF000FFF7A0FCECE7C04610B5002800D110BDFB
:1010000000F03EFD00F09CFDF9E7C04610B5002859
:1010100000D110BD00F03CFD00F092FDF9E7C046A4
:1010200010B500F03DFD084B186805F007FA0020E8
:1010300005F040F9002005F04FF900F047FD00F001
:101040005BFD00F07DFD10BD600D002010B500209F
:1010500005F030F9002005F03FF900F037FD00F011
:101060004BFD00F06DFD10BD10B5008800F0DAF901
:101070000305C2B200041B0F000F0F280CD8114942
:10108000800009588F46F02A1AD014D80020E72390
:1010900093424041C0B200E0002010BD07209842BA
:1010A00080414042F9E70120E72AF6D9F13A53425C
:1010B0005A41D0B2F1E7F43A53425A41D0B2ECE788
:1010C0000120EAE720B1000082B002B07047C046BC
:1010D00082B002B07047C0467047C04610B5FFF7F7
:1010E000FBFF10BD7047C04610B5FFF7F7FF024B7E
:1010F0001870FFF7ABFF10BDB110002010B5044C05
:1011000023781843FFF7EAFF2070FFF79FFF10BD19
:10111000B110002010B5044C23781840FFF7DEFF13
:101120002070FFF793FF10BDB110002010B5044CE4
:1011300023785840FFF7D2FF2070FFF787FF10BDDC
:10114000B11000207047C04610B5FFF7FBFF10BD7F
:1011500010B5FFF7F9FF024B1870FFF777FF10BDCE
:10116000B010002010B50020FFF7EEFF024B187002
:10117000FFF76CFF10BDC046B01000200123834074
:1011800010B5D8B2FFF7E0FF024B1870FFF75EFF13
:1011900010BDC046B01000200123834010B5054C9F
:1011A00020781843C0B2FFF7CFFF2070FFF74EFF43
:1011B00010BDC046B01000200123834010B5044C80
:1011C00020789843FFF7C0FF2070FFF73FFF10BD66
:1011D000B01000200123834010B5054C2078584002
:1011E000C0B2FFF7B1FF2070FFF730FF10BDC0465F
:1011F000B010002010B5044C23781843FFF7A4FF6B
:101200002070FFF723FF10BDB010002010B5044C74
:1012100023781840FFF798FF2070FFF717FF10BDE5
:10122000B010002010B5044C23785840FFF78CFF15
:101230002070FFF70BFF10BDB01000207047C046B4
:1012400070B582B001AA10800722012503041B0E8D
:101250001B011818C3B21040854000240126DB088A
:101260005A00D218084BEDB2D2180B00E3401078A8
:1012700033405B4243402B405840013410700132F0
:10128000032CF2D102B070BD8C100020072230B5C3
:101290000104090E83B00901091801AB188001256A
:1012A000CBB2002011400022DB085C00E418064BA2
:1012B000E418A35CCB402B40934001321843C0B2EA
:1012C000032AF6D103B030BD8C100020F0B5C6461D
:1012D00000B53B4A84B0127801AB1980002A41D195
:1012E00000281FD107215A781B781201D218D3B2D7
:1012F000DB080A405900C918324B0025C9180124DF
:101300000023C85CD0402040984001330543EDB233
:10131000032BF6D12800019900F072FF04B080BCC5
:10132000B846F0BD1B8803AF274A3B80274B167891
:101330001B7807241E430123984601E0013C32D369
:101340003300424623411A42F8D0E5B228003968FA
:1013500000F056FF80B20128F0D029000198FFF775
:101360006FFFD7E78BB202AA03AF13803B80164A08
:10137000164B15781B78072401261D4301E0013C1C
:1013800017D32B0023411E42F9D0E3B2180039686D
:10139000984600F035FF80B20128F0D0404602990F
:1013A00000F02EFFBAE7002501982900FFF748FF5B
:1013B000B0E7002398460299404600F021FFADE7D0
:1013C000881000208C100020B0100020B1100020E8
:1013D000F0B5C64600B5114A114B15781B7882B09E
:1013E00001AF0724012638801D4301E0013C11D3E1
:1013F0002B0023411E42F9D0E3B218003968984609
:1014000000F0FEFE80B20128F0D0404602B080BC61
:10141000B846F0BD00239846F7E7C046B01000205C
:10142000B1100020F0B5C64600B584B001AB1880FD
:10143000114A124B15781B7803AF07240126388018
:101440001D4301E0013C14D32B0023411E42F9D07F
:10145000E3B218003968984600F0D2FE80B2012845
:10146000F0D04046019900F0CBFE04B080BCB846F5
:10147000F0BD00239846F4E7B0100020B110002022
:10148000F0B5C646070000B500284AD000257F26E3
:10149000387874282FD0742814D8022847D03AD826
:1014A00001283ED17A7813002033DBB2072B53D8C2
:1014B000072313409840C0B200F00EFB023700F043
:1014C0003FFB0AE075282FD003007C33DBB26F2B83
:1014D00027D83040FFF7BAFA01376C1EE4B2002D6E
:1014E000D6D0013C0020E4B206F008FAFF2CF8D177
:1014F00038787428CFD1BB1C98467B785C1EE4B248
:10150000002B06D0013C0020E4B206F0F7F9FF2CD6
:10151000F8D14746E1E7031F6F2B02D8FFF790FA97
:10152000DAE780BCB846F0BD7D780237D5E7787839
:1015300003002033DBB2072B0AD807230340012026
:101540009840C0B200F0D0FA023700F0F9FAC4E7D0
:10155000FFF77CFA0237C0E71000FFF771FA023795
:10156000BBE7C046F0B5DE4657464E464546E0B5B9
:10157000334885B083790F2B5BD88378002B58D004
:10158000304B314F9B4639781B788B4251D0427893
:101590002E4E91460278858892462D4A9046072223
:1015A00094465A46BB46019237000E0004E062465C
:1015B00001331340B3423CD0026802A902928288F0
:1015C0008A80002DF3D00A884245F0D0DA00BC189A
:1015D00061784945EBD1BA5C5245E8D1A278002A3E
:1015E000E5D1A1881B4A491B128889B28A42DED9FB
:1015F000019B3E005F469B460F23102182791A40D3
:101600000A438271A27913400B43A371FFF7A0FC38
:101610005B461C783B78A3420BD00725E300F058CB
:10162000F3185968FFF754FD3B7801342C40A3426E
:10163000F4D105B0F0BCBB46B246A946A046F0BD09
:10164000F4100020B2100020B3100020B4100020CD
:10165000FFFF00005C0D0020F0B54546DE46574612
:101660004E46E0B5040085B001000622684608F049
:1016700017FC6A46A64DA38828682188A77802909F
:101680009846AB889381002B39D01289A14E93469E
:10169000B446B24227D0AE78002E24D0AA79914623
:1016A0004246D31A9C4A9BB212889A4257D84B465C
:1016B0000F2B00D8DAE02B888B4200D1DEE020002F
:1016C000FFF7D2FC002802D0002F00D081E02000DC
:1016D000FFF73EFC0126300005B0F0BCBB46B24629
:1016E000A946A046F0BD6E462A680292A88892B22A
:1016F000B0818848824202D0A878002814D0002FF8
:10170000E5D02000FFF7B0FC0028E0D0210008223F
:10171000280008F0C5FB2800FFF78CF9FFF722FF2F
:1017200003CDFFF7D5FCD5E74046C31A7A489BB2F4
:10173000008898426ED9002FC9D0914279D02000FC
:10174000FFF792FC002854D021000822280008F05E
:10175000A7FBFFF707FF03CDFFF7BAFCBAE74B463D
:101760000F2B2AD88BB259454CD04246002A45D07F
:10177000634543D0002F47D1684B694A1B781278E4
:101780009446934200D18CE00A0A9046CAB2914630
:101790000721644F04E001330B40634500D180E032
:1017A000DA00B81845784545F5D1BA5C4A45F2D11A
:1017B0008278002AEFD000268DE7594500D07EE7D9
:1017C000002F00D191E02000FFF74EFC002800D14F
:1017D0007DE7AB791F2BB7D969462A8802A80A8111
:1017E00000228A726A46414693739181FFF7B0FBEB
:1017F000AAE70122AB791343AB7168E7002F03D14D
:10180000002668E7002F72D00122AB79002613432F
:10181000AB7160E700980199FFF756FC08220021A0
:10182000280008F0EBFA00200021FFF751FC002609
:1018300051E7AB79DA072ED40F2B2CD90F22A371E5
:101840009343F02B06D0A1790B0901331B010A4009
:101850001A43A2712000FFF77BFB21000822280019
:1018600008F01EFB03CDFFF733FC33E70098019926
:10187000FFF72AFC2800FFF76BFBCFE7002FA2D170
:101880004B462000A371FFF763FB082200212800CC
:1018900008F0B4FA1EE708222100280008F000FB37
:1018A00018E70098FFF7BEFDC2B20004030F012B3A
:1018B0000ED80001000F02D0002A00D17BE72032B1
:1018C000D2B2072A00D876E72000FFF741FB02E7F3
:1018D0000F210E330B40012BF6D8000E0142EED043
:1018E000A3790F2BEBD80026F5E6A371B2E74A46A1
:1018F0000F23134010221343AB716968FFF7E8FB15
:101900002800FFF725FBAB790026A371E3E6C0466C
:10191000F4100020FFFF00005C0D0020B21000203A
:10192000B3100020B4100020F0B5CE46474680B575
:1019300087B06C46009020006160FFF78DFE051EA9
:1019400031D000980490A388A382002B23D1374E76
:10195000374F34783B789C4218D00723354D984652
:101960000EE03378DB00E858EB185968FFF7B0FB5E
:101970004346347801341C403B783470A34205D090
:10198000E0002818FFF768FE0028EAD107B0C0BCC5
:10199000B946B046F0BD228A274B9A42D7D061683B
:1019A000FFF796FBD3E7220004AB984603CA03C3B4
:1019B000A38806229946414602A808F071FA4A46D1
:1019C0001B4F1A4E3B783478002AC4D06A461189DE
:1019D000194A9142BFD00722591C0A409446A2429C
:1019E0001AD04146134DDB00EB1805C905C3634609
:1019F000DAB207233A709846A242C7D0E300E8580B
:101A0000EB185968FFF764FB434601341C403B78F0
:101A10009C42F3D134789EE7FFF702FB08220021B5
:101A200006483D70357008F0E9F9AFE7B2100020C4
:101A3000B3100020B4100020FFFF0000F4100020BD
:101A40000020024B1856C010C0B27047FC10002096
:101A50000720024B1B7818407047C046FC1000203E
:101A60000720034B1B781840431E9841C0B27047B3
:101A7000FC100020014B18787047C046221100204E
:101A8000024B1A78104318707047C046221100208C
:101A9000024A1378834313707047C0462211002016
:101AA0000022014B1A70704722110020024B1A7855
:101AB000104318707047C04621110020024A137865
:101AC000834313707047C046211100200022014B50
:101AD0001A70704721110020024B1A7810431870B9
:101AE0007047C04620110020024A137883431370C8
:101AF0007047C046201100200022014B1A70704729
:101B000020110020014B18787047C046FD100020BE
:101B10007047C04610B5FFF7FBFF10BD064B10B570
:101B20005B785B0703D4054B1A78824200D110BD65
:101B30001870FFF7EFFFFAE794150020FD10002062
:101B400070B5114B114A1B781278114C1343114A8E
:101B5000114D1278206813432A780370002A02D1AD
:101B600004F08CFB70BD1343037004F0C7FB002826
:101B700007D02B78002B04D0002300202B70FFF718
:101B8000C9FF2068ECE7C046221100202111002087
:101B9000600D002020110020FD10002010B5054B25
:101BA0001A78002A00D110BD002200201A70FFF719
:101BB000B1FFF8E7FD1000207047C04610B5FFF7F1
:101BC000FBFF10BD0A4B10B55B785B070CD4094CCA
:101BD000C3000B432370FFF7DFFA00202056C0102C
:101BE000C0B2FFF7EBFF10BDFFF7D6FAFBE7C04628
:101BF00094150020FC100020002370B50D4CE35616
:101C00001A00824350B22070420708D1DBB28342EF
:101C100005D0094B5B785B07DD0F002B00DA70BD48
:101C2000C010C0B2FFF7C8FA00202570FFF7C6FF4A
:101C3000F5E7C046FC10002094150020074A10B5B7
:101C40005378590708D404210B435370108800F0CF
:101C5000DDF80220FFF7D0FF10BDC046941500202C
:101C6000074A10B55378590708D504218B435370A0
:101C7000108800F0CBF80220FFF7BEFF10BDC04671
:101C800094150020012270B5154C63785907C90FCF
:101C9000514001220A40042192008B431343637098
:101CA000208800F0B3F800230E4D0222EB561800F6
:101CB0009043033228701A4207D1DBB2834204D02A
:101CC00063785B07DC0F002B00DA70BDC010C0B278
:101CD000FFF772FA00202C70FFF770FFF5E7C0469F
:101CE00094150020FC10002010B50021132000F0F6
:101CF00095FC10BD10B500210F2000F08FFCFFF700
:101D0000F3FF10BD10B500F0A1FC0020224900F047
:101D10006BFC0021022000F04DFC0021032000F0AC
:101D200049FC00221D4B002104201A7000F042FCE7
:101D30000021222000F03EFC0021052000F03AFCAA
:101D40000021062000F036FCFF21072000F032FCC5
:101D50000021082000F062FC00210D2000F02AFC88
:101D60000021182000F05AFC0021172000F022FC6E
:101D700000211C2000F052FC0021202000F034FC47
:101D80000021182000F04AFC002003F001FD03F0C0
:101D90001BFDFFF7AFFF10BDE9FE0000B1100020F2
:101DA00010B5FFF7AFFF10BD10B500F04FFC0020DD
:101DB000014900F019FC10BDFFFF0000002010B524
:101DC00000F0CAFB044B020000209A4200D010BD74
:101DD00003F0C8FCFBE7C046E9FE000010B5022096
:101DE00000F0AAFB10BDC04610B5032000F0A4FB14
:101DF00010BDC04610B5042000F09EFB0400222058
:101E000000F09AFB0002204380B210BD10B5040020
:101E1000C1B2042000F0CEFB2220210A00F0CAFB50
:101E200010BDC04610B501000E2000F0C3FB10BD70
:101E30007047C0467047C04610B5FFF7FBFF10BDA6
:101E400010B5FEF7A3FB10BD10B5054800F0E4FA8D
:101E500000F0FAFBFFF7ECFFFFF7EEFF10BDC04606
:101E6000112400000120704710B5FFF7FBFF10BDE3
:101E70007047C0467047C04610B5FFF7F9FFFFF73F
:101E8000F9FF10BD10B504F043FB03F0BFFCFEF7F3
:101E9000C1FA8022064B524219780A431A701888F8
:101EA000FFF7B4FF03F044FFFFF7CAFF10BDC046C1
:101EB00094150020F0B5DE4657464E464546E0B53F
:101EC00085B0FEF7CBFA002869D1404B00279B462E
:101ED00098463F4B019301239A46FBB2180099465E
:101EE000FEF790FA43461C880600844216D102236E
:101EF0009C460137E044062FEFD1012302AA5B4242
:101F000013800023937004F017FB0123184302ABE6
:101F1000988002980399FEF751FD29E00222019B67
:101F20001B781A4238D1230051465446734000258D
:101F30009AB21C400B4208D1012401356400EDB275
:101F4000A4B2102DD3D01442F7D02640731E9E4168
:101F5000FFF78AFFF6B2002828D15B467F00DB5BE3
:101F600032005C405B4629004846DC5302F0F8FA38
:101F700002F06EFE04F076F9164C2378834204D00A
:101F800004F070F92070FEF7CDFC05B0F0BCBB4644
:101F9000B246A946A046F0BDFEF73AFAC3E704F000
:101FA000FDFA0D4B18600D4B18608EE74A4602ABE8
:101FB0001D705A709E7004F0BFFA0123184302ABE3
:101FC000988002980399FEF7F9FCC6E724110020D7
:101FD000381100202311002034110020301100207E
:101FE000002070477047C046014B4000185A7047A8
:101FF000C0B1000070B500F00FF9A2230400DB01AE
:10200000984218D2013BFF3B984266D2DF2836D86F
:10201000BF2800D9ABE0A7284ED8A42800D9C3E038
:1020200001282AD00023A021021F92B291425B41D5
:102030005B421C4021E0AC23DB0198425DD2013BB6
:10204000FF3B984200D37FE0013BFF3B98423FD2E9
:10205000A623DB01984200D39AE0013BFF3B984264
:1020600000D290E00324C2B2144093080122A2409F
:102070005B015A4C13431C43A4B2201C70BDC02307
:102080009B0198420ED280239B01984275D2E7288B
:10209000F3D9F822431EFF3B9BB2520193429B416E
:1020A0001C40EAE78023DB01984258D3A0230405B3
:1020B000240D1B021C43E0E7BF2800D18BE05834FD
:1020C000474BE4B26400E35A8824E4011C43D4E79C
:1020D000444C03021C43A4B2CFE7032201210309AD
:1020E000104081401340A4081B02144064010B43BC
:1020F00023433A4C1C43A4B2BFE7B423DB0198420C
:102100000DD2013BFF3B984254D2374BC3189BB2D0
:10211000FF2B60D8354C03021C43A4B2ADE78025E9
:10212000334BAD01C3189BB2AB4254D2C004C00EB6
:1021300000F0FEF8F82300025B011840FF23234063
:102140002C001843044398E7C0B200F0F1F8F823DC
:10215000802400025B011840A40104438DE7FF23A3
:102160000340240533D5C82424021C4385E7C03C22
:10217000A0B2FFF739FF04007FE70005000DFFF76D
:1021800033FF040079E71B4C03021C43A4B274E73D
:102190000324C2B2144093080122A2405B01164CF2
:1021A00013431C43A4B268E78023243CDB011C4397
:1021B000A4B262E70F252800204000F0B9F82409F6
:1021C00025402D020D4C05432C43A4B255E7C024F5
:1021D00024021C4351E700244FE7C046008CFFFF58
:1021E00090B10000F4A0FFFF00A8FFFFF0A0FFFFE8
:1021F00000A0FFFFF1A0FFFF008AFFFF0090FFFF9C
:1022000000B583B001AB1980019903F051FEFFF7CF
:10221000F1FE03B000BDC046E72818D8DF2817D963
:102220000300E03B9BB2072B11D83E4A9B00D358DA
:102230009F463D4B1878020700D56EE05B789B0700
:1022400000D56CE0E623C006C0179843E73070471E
:1022500039283AD82828FAD90300293B9BB2102BF9
:10226000F5D8324A9B00D3589F462F4B1B781A074C
:10227000EDD5E622DB06D8179043E730E7E72A4A98
:1022800053789B07E3D51078DCE7274B1878420793
:1022900041D45B78DB071ED4E223C006C017984305
:1022A000E330D4E7204B1B785A07D0D5E222DB0677
:1022B000D8179043E330CAE701221B490B781A4232
:1022C00027D149780A42F1D1C1E78228BFD1164B04
:1022D0001B789B07BBD0E020B9E7134B1B789B060C
:1022E000B5D52920B3E7104B187806234006C01750
:1022F00098433130ABE70C4B1B785B06A7D53120F8
:10230000A5E70C20084B1B789B06DB1718402930EB
:102310009DE739209BE7E22099E7E62097E7E42054
:1023200095E7C046C0B1000094150020E0B1000060
:10233000364A30B513785478082101220225194015
:10234000224025405C0707D518240440082C36D0CD
:1023500014240440042C4DD0002907D0182101403A
:1023600018294ED014210140142935D0002A07D055
:1023700018220240082A13D011220240012A32D02A
:10238000002D04D1DB0601D5E723184030BD18220B
:102390000240182A0AD19043C0B2073A1043F1E72D
:1023A000904301221043C0B2002DEBD01122024015
:1023B000112AE7D19043C0B207321043E2E7A043AD
:1023C00004242043C0B20029CCD1002AECD0112231
:1023D0000240012AD4D106E0884318210843C0B244
:1023E000002ACDD0C4E7904308221043C0B2002D8C
:1023F000C8D0CCE7A04308242043C0B20029B5D000
:10240000ACE7884314210843C0B2DEE794150020EE
:102410000020704700207047014B18607047C0468D
:10242000640D002010B5FFF7BFFC10BD10B5FEF71E
:1024300015F8002005F062FAFEF710F80020FDF70D
:10244000E1FFC00700D410BDFFF7ECFF04F040F936
:10245000F9E7C04610B5FFF7E9FF10BD10B5FFF76B
:10246000ADFC002812D0FFF7B9FC0A4B1870FFF73B
:10247000C1FC094B1880FFF7EDFFFFF7B5FCFEF735
:1024800033FE064B1878FEF75FFE10BDFFF788FCA1
:10249000E9E7C0463811002094150020B010002054
:1024A0007047C046F8B505000E001400114F002B10
:1024B00003D13B78002B09D1F8BD01233B7004F018
:1024C0006DF80D4B18603B78002BF5D00A4B18685F
:1024D00004F0CAF80428EFD9002C07D0002300220A
:1024E000E95A0132F1520233A242F9DB00233B7078
:1024F000E2E7C046401100203C11002010B504F076
:1025000061FCFFF7BFFC04F071FC10BD10B504F0D6
:1025100075FCFFF7CFFC04F075FC10BD10B503F09F
:10252000DDFF04F04BFCFFF78FFCFFF7E7FFFFF741
:10253000EDFFFFF7A1FCFAE700B583B06A46002380
:10254000D3716B4601000122D81D00F08DF86B4657
:10255000D87903B000BDC04600B583B06A460023F9
:10256000D3806B4601000222981D00F07DF86B4677
:10257000D88803B000BDC046F8B51400D31D6A4624
:10258000DB08DB00D31A00AF9D4605002200684639
:102590000E0000F069F822006946280007F020FCD0
:1025A000002801D1BD46F8BD22003100280000F00E
:1025B00079F8F7E730B583B000236A46D3716B46EC
:1025C00004000D0001220100D81D00F04DF86B46FB
:1025D000DB799D4206D06B4601222100DD71D81DBA
:1025E00000F060F803B030BD30B583B000236A4618
:1025F000D3806B4604000D0002220100981D00F0FC
:1026000033F86B46DB889D4206D06B4602222100E0
:10261000DD80981D00F046F803B030BD002330B5D2
:1026200083B004000D000422010001A8019300F012
:102630001BF8019B9D4205D00422210001A80195B1
:1026400000F030F803B030BD7047C04670B5FA24D2
:10265000044D24022000403407F0ACF9AC42F9D11B
:1026600070BDC046C0FF000030B5002A19D0B824A4
:102670008A18E4000CE0FA252D02AC460B041B0C72
:1026800063441B780131DBB203700130914208D002
:102690008BB2A342EFD3FF2301310370013091428B
:1026A000F6D130BDF0B5CE4600B582B0002A24D0B8
:1026B0000323B8250C00060099468F18ED00A3B23D
:1026C000AB4216D2FA2109028C4623041B0C634448
:1026D000327819788A420CD018004946884301683C
:1026E000019149460B4069460431CA54019907F0EB
:1026F000C3F901340136BC42E1D102B080BCB94615
:10270000F0BDC046F0B5CE46474680B5050A85B057
:10271000030CEDB20190DBB2002D31D001AA1C00F8
:102720001E00107800293FD1430098464044FF2105
:102730004000FDF799FDFF23820091461218110118
:10274000521841469C468A1A510052186746D2B226
:102750001100BA1A69435B1B554309122D12791AED
:102760007D1B634361436C431B1209122412DBB2CD
:10277000C9B2E4B206282DD84846184A12589746DE
:10278000002901D0164AD35C1C001E00FF22200045
:102790001640104036021A4012043043104305B070
:1027A000C0BCB946B046F0BD0D4B1E5D3400BBE762
:1027B000220034001E001300E8E732000C001E0067
:1027C0001300E3E722001C0033001600DEE73400AC
:1027D0000E00DBE71C000B00D8E7C04624B2000067
:1027E00090B4000000B5012185B0FFF78BFFFF21F9
:1027F0000200030A0B40000C08400A401B021A4367
:10280000030402481040184305B000BDFFFF00FF5D
:1028100010B5030A84B001903031D8B2104B490092
:10282000C95CE4234B431B121C339A1AD317D218EA
:102830005A40D200821A13B2DB43DB1713401BB29B
:10284000584301AC00126070238820781B0A1B02D9
:10285000044A1843A37810401B04184304B010BD69
:10286000000C0020FFFF00FF134B30314900C95C12
:10287000E4234B431B121C339A1AD317D21810B5FA
:102880005A40040CE4B2D200A21A13B2DB43DB17A5
:102890001340FF221BB25C4313000340000A1040A8
:1028A000000218432412054B14402404184084B03D
:1028B000204304B010BDC046000C0020FFFF00FF05
:1028C00084B001A901900A700B88D0B21B0A1B02C8
:1028D000034A18438B7810401B04184304B0704718
:1028E000FFFF00FF10B50A4B30314900CB5C84B0CC
:1028F00001AC9B1A01902370238820781B0A1B02CD
:10290000044A1843A37810401B04184304B010BDB8
:10291000000C0020FFFF00FF10B50B4B30314900C9
:102920005B185B7884B001AC9B1A019023702388FC
:1029300020781B0A1B02054A1843A37810401B0489
:10294000184304B010BDC046000C0020FFFF00FF7C
:10295000F0B53031114E15004A00B218577885B0E5
:102960003A00203A019001ABC0B254B2120602D52F
:102970002024E41B64B24900725C521B12198018B7
:1029800018701A88C0B2120A12029B781043044AC7
:102990001B041040184305B0F0BDC046000C0020D9
:1029A000FFFF00FF84B004A9019008785900C918FE
:1029B000491001AA401810701388C0B21B0A1B02EC
:1029C00018439378024A1B041040184304B0704720
:1029D000FFFF00FF70B584B0019048B20C0601D52E
:1029E000494248B23826361AB6B292B276435243BA
:1029F000B618B6B2012E2FD9F722FF255201964202
:102A000026D9012403E00138C5B2AC420DD86219C1
:102A100052101100514389B2D0B28E42F3D3FF2A33
:102A20001ED00130C4B2AC42F1D9013C6200A418FE
:102A3000E4B201AA1B191370138810781B0A1B0239
:102A400018439378074A1B041040184304B070BD24
:102A500075090835EDB2D4E774003419E4B2E8E73B
:102A6000FD24E6E7FFFF00FF70B530330F4D5B003C
:102A7000EE185B5D7678703B59437F23203E7243AE
:102A80005218D1170B409B1884B0DB1101AC1B18F6
:102A900001902370238820781B0A1B02044A1843E4
:102AA000A37810401B04184304B070BD000C002034
:102AB000FFFF00FF70B530330F4D5B00EE185B5D1C
:102AC0007678703B59433F23203E72435218D1170A
:102AD0000B409B1884B09B1101AC1B180190237014
:102AE000238820781B0A1B02044A1843A37810404D
:102AF0001B04184304B070BD000C0020FFFF00FF52
:102B000070B53033154D5B00EE18767884B0203EFA
:102B100072435E5D01903500703D01ACC0B26BB296
:102B20002D0602D570239B1B5BB23825EB1A594347
:102B30008A1853009B187F22D9170A40D218D21145
:102B4000801820702388C0B21B0A1B02044A184355
:102B5000A37810401B04184304B070BD000C002083
:102B6000FFFF00FF30B50F4B30314900CD5C85B021
:102B7000AB1A019001ACC0B2D9B21B0601D5521BF1
:102B8000D1B24B005B185B11C01820702388C0B213
:102B90001B0A1B02044A1843A37810401B04184365
:102BA00005B030BD000C0020FFFF00FFC94310B589
:102BB000FF24030CC9B2DBB24B4321000140000AE1
:102BC00020401B0A1C400002034B08432404184009
:102BD00084B0204304B010BDFFFF00FF10B5FF24F8
:102BE000822321405B1A19B2C943C91784B0194026
:102BF000019001AA40181070108893780440000AD0
:102C000000021B042043184304B010BD10B584B06B
:102C100006AA128801909800C0181218131C92B2CC
:102C200001A9FF2A00D9FF23DB438A78DBB29B1876
:102C30001C1CFF2B00D9FF240A88FF231000120A56
:102C40001840120223401B041043184304B010BD67
:102C500030B585B0019008A800881B18C81709185E
:102C60004140D0171218424009B29BB292B20901FA
:102C7000FF2900DDFF2112B21201FF2A00DDFF2231
:102C80000C1C15B209B201A8A94200DD141C1A19C6
:102C9000131C92B2FF2A00D9FF23DB438278DBB2F8
:102CA0009B18191CFF2B00D9FF210288FF2310005D
:102CB000120A184012020B401B041043184305B0BF
:102CC00030BDC04670B584B0050C160008AA01904E
:102CD0001288E8B201ACFF25482B05D8D31A1D1C79
:102CE0009BB2FF2B28D8ADB2083189B2102904D984
:102CF000330008339BB2102B1CD8ED43EDB20322F6
:102D0000F1170E4B0A405B78921940199210D218B5
:102D1000011C80B22270FF2800D9FF212288FF23E6
:102D20001000120A184012020B401B0410431843F3
:102D300004B070BD0025E2E7FF25D4E79815002018
:102D400010B584B006AA12880190D21A131C92B250
:102D5000FF2A00D9FF23DBB2D84301AA9178C0B281
:102D600009180C1CFF2900D9FF2411785B18137077
:102D70001288FF231000120A1840120223401B047D
:102D80001043184304B010BD10B584B006AA1288D1
:102D900001A9D31A1A1C9BB20190FF2B00D9FF2264
:102DA000D3438A78DBB29B181C1CFF2B00D9FF246D
:102DB0000A88FF231000120A1840120223401B0445
:102DC0001043184304B010BDF0B5C64600B5060A5E
:102DD000F6B284B0F71A0C009046130001AD0190D2
:102DE000FFB2002A18D1C90FC9018B015B1A9B00E1
:102DF000C9187F18FFB27E4336126E702B88287870
:102E00001B0A1B02124A1843AB7810401B041843DC
:102E100004B080BCB846F0BDD2179B1853401BB21B
:102E2000C918002C0CDBE31A5801FDF71DFA20210C
:102E3000091AC9B24346002BD7DA4942C9B2D4E7CE
:102E40004801191BFDF710FA6021091AC9B2F1E710
:102E5000FFFF00FF70B584B00C0016001D0001904C
:102E6000002A10D1CC0FE40101AA2D191570138886
:102E7000E8B21B0A1B0218439378104A1B04104047
:102E8000184304B070BDD217B31853401BB2C91811
:102E9000002C0BDBE41A6001FDF7E6F92024241A6C
:102EA000E4B2002EE0DA6442E4B2DDE74801191B27
:102EB000FDF7DAF96024241AE4B2F2E7FFFF00FF1D
:102EC00070B584B0160008AA15780C005D1B01903F
:102ED000EDB2002E10D1CC0FE40101AA2D1B15700C
:102EE0001388E8B21B0A1B0218439378104A1B048C
:102EF0001040184304B070BDF217B31853401BB212
:102F0000C918002C0BDBE31A5801FDF7ADF920249A
:102F1000241AE4B2002EE0DA6442E4B2DDE74801AC
:102F2000191BFDF7A1F96024241AE4B2F2E7C046A8
:102F3000FFFF00FFF0B5050CEDB285B0EE1A0C00F6
:102F400017000190F6B2002A16D1C90FC9018B01F2
:102F50005B1A9B00C91801AB1A88FF231000761872
:102F6000F6B27543120A2D0A184012022B401B04B8
:102F70001043184305B0F0BDD217BB1853401BB225
:102F8000C918002C0BDBE31A5801FDF76DF920215D
:102F9000091AC9B2002FDADA4942C9B2D7E74801A3
:102FA000191BFDF761F96021091AC9B2F2E7C046A1
:102FB000F0B585B017000AAA1278060CF6B29B1A73
:102FC000F3180D000190DCB2002F12D1CD0FED01EE
:102FD00001AA1288631BDBB25E431000FF23340A90
:102FE000120A1840120223401B041043184305B074
:102FF000F0BDFA17BB1853401BB2C918002D0BDBEC
:10300000EB1A5801FDF730F920252D1AEDB2002FEB
:10301000DEDA6D42EDB2DBE74801591BFDF724F91A
:1030200060252D1AEDB2F2E7F0B5C646904600B520
:1030300084B00AAA1278070AFFB29B1AFB18DCB206
:1030400043460D0001AE0190002B14D1CD0FED01D0
:10305000631BDBB27B431C127470338830781B0A0D
:103060001B02134A1843B37810401B04184304B0E2
:1030700080BCB846F0BDDA179B1853401BB2C91884
:10308000002D0CDBEB1A5801FDF7EEF820252D1A68
:10309000EDB24346002BDBDA6D42EDB2D8E74801D2
:1030A000591BFDF7E1F860252D1AEDB2F1E7C04696
:1030B000FFFF00FF70B584B0019001ACC0B25306B1
:1030C00035D40F2315001340AD061C4EAD0F6D0017
:1030D000AD196E782D7873431B115B1952B2DBB2B8
:1030E000002A01DA5B42DBB2154A303149008A5CC2
:1030F000803A9B18DBB219008039CAB2090603D5A1
:1031000080225242D21AD2B25300DBB25A00D318F4
:103110009B09C01820702388C0B21B0A1B02094AF1
:103120001843A37810401B04184304B070BDD34368
:103130000F26DDB233400133C6E7C046F0B20000CF
:10314000000C0020FFFF00FF00B585B0FFF74AFB31
:10315000FF210200030A0B40000C08400A401B023A
:103160001A43030402481040184305B000BDC0468E
:10317000FFFF00FF70B582B06946144B04009A78D7
:103180004A70DA788A705D7806F0ECFDB4210600AA
:1031900028004900B430FDF7B1F80322491BCB17D2
:1031A00013405B1832409B105343ED186B461D7063
:1031B0000098FFF7C9FFC2B20104030204481B0EC6
:1031C0004568090E2000A84702B070BD9815002080
:1031D000F8B2000030B583B0040006F0C3FD6B46C2
:1031E000187006F0BFFD7F236A460340803B537092
:1031F000084BDB7893700098FFF7A6FFC2B201047A
:10320000030205481B0E4568090E2000A84703B0BD
:1032100030BDC04698150020F8B20000F0B54E460B
:103220004546DE465746E0B505788BB02B01ED18D4
:10323000EDB22C001134E4B281460491231C542CCD
:1032400000D95423DBB29A46494B1A88494B05935F
:103250001B795B0853431B12DBB29846AA4575D90C
:103260002B00454A30335B009F18444B09329B4684
:103270004346D046FF32029209AE079406934A466F
:10328000029B52785B5D1A425AD03A787978703A4C
:10329000203993B294468AB25B4352439B189BB247
:1032A0009A460391012B5DD9F723FF215B019A45D3
:1032B00003D8534659090831C9B22B000124554699
:1032C0009A4603E00138C1B28C420DD863185B10F6
:1032D0001A005A4392B2D8B29542F3D3FF2B43D08F
:1032E0000130C4B28C42F1D95546013CE3B2069A92
:1032F000049C0092059A5178214A527812020A439E
:103300001F498878614600041043039AA047307033
:10331000030400021B0E000E7370B0703068FFF7DC
:1033200013FF0104030208AA090E1B0E107051704E
:103330009370C2B25846DBB24468C9B22800A047B5
:103340000135EBB20237984599D8079C53230020EA
:10335000A3424041C0B20BB0F0BCBB46B246A94646
:10336000A046F0BDDBB2C2E75546FF23BFE7C0462B
:10337000A015002098150020000C0020F8B20000D5
:1033800099150020F0B54E46DE465746454604786E
:10339000E0B52301E418E4B22600113689B0F6B294
:1033A00081460391331C542E00D95423DBB29B4633
:1033B0002F49304B04910A791B88520853431B1242
:1033C000DBB20293A34546D927002B4B30377F0051
:1033D000FF180933FF3301934B1C9846274B07AD69
:1033E0009A4605964A46019B52781B5D1A422CD09C
:1033F000049B7A78587843465B7839781B020343FC
:1034000040468078203A7039000412B209B2039E17
:103410001843029BB0472870030400021B0E000EE5
:103420006B70A8702868FFF78FFE010406AB090EC9
:103430001870597003021B0E06AA9370C2B2504650
:10344000DBB24668C9B22000B0470134E3B20237AC
:103450009B45C7D8059E53230020B3424041C0B2CC
:1034600009B0F0BCBB46B246A946A046F0BDC04676
:1034700098150020A0150020000C0020F8B20000D4
:10348000F0B504784546DE4657464E462301E4181B
:10349000E4B22300E0B5113387B0DBB2804601917E
:1034A0001A1C542B00D95422D2B2934628482949D9
:1034B000029002790F889208013257433F12FAB204
:1034C0000092A34537D9244A461C9146234A05ADAC
:1034D000924603934B4642461B5D52781A4225D0D2
:1034E000029BB0785A78737800041B021343E1B250
:1034F000009A1843019B98472870030400021B0E92
:10350000000E6B70A8702868FFF71EFE010404AB64
:10351000090E1870597003021B0E04AA9370C2B2F0
:103520005046DBB24768C9B22000B8470134E3B265
:103530009B45CFD8039B532200209A424041C0B202
:1035400007B0F0BCBB46B246A946A046F0BDC04697
:1035500098150020A0150020080D0020F8B20000EA
:10356000F0B5DE464E46574645460478E0B52301A1
:10357000E418E4B2260011368BB0F6B28346069109
:10358000331C542E00D95423DBB29A46474B484A89
:1035900003931B7912889B085A431212D3B29846A0
:1035A0004033D8B25B0600D57AE00F230500034014
:1035B000AD064049AD0F6D004D196F782D787B43F6
:1035C0001B115B1940B2DBB2002801DA5B42DBB2AF
:1035D0005BB2049343465B065ED543460F25DB434F
:1035E000D8B22B4001338006800F4000091848787C
:1035F000097843431B115B18DBB2120601D55B420D
:10360000DBB25BB20593A2453AD92B4B09AD0293CD
:10361000039B07965F1C294B99465A46029B52789A
:103620001B5D1A4227D042460092039AB87851781F
:103630007A78000412020A43069E0499E3B210430A
:10364000059AB0472870030400021B0E000E6B7031
:10365000A8702868FFF778FD0104030208AA090E84
:103660001B0E107051709370C2B24846DBB24668B0
:10367000C9B22000B0470134E3B29A45CDD8079EC5
:1036800053230020B3424041C0B20BB0F0BCBB4654
:10369000B246A946A046F0BD0F2340460340A2E72C
:1036A000C3430F21DDB20B40013381E798150020A1
:1036B000A0150020F0B20000080D0020F8B20000B4
:1036C000F0B504785746DE464E4645462301E418D9
:1036D000E4B22300E0B5113387B0DBB2824601913A
:1036E0000393542B00D95423DBB29946424B98469E
:1036F0001B790133191CFF2B00D9FF213F4889B2E8
:10370000FCF7B2FD029086B2A14563D93C4D3D4B1A
:103710002F009B46113F009503E00134E1B289453B
:1037200058D95B4652461B5D52781A42F5D0364B4B
:103730001A78013AD3B212065CD4009DE1B202E0DD
:10374000013B1A0653D4EA5C8A42F9D118000C30C6
:10375000400038184278944682786046120202434C
:10376000B242EDD21100009543461B7901331A1C79
:10377000FF2B00D9FF22434692B251435A789B78DF
:1037800009121B0213434246D07889B20004184341
:10379000019B984705AB187002040002120E000E40
:1037A0005A7098700598FFF7CFFC010404AB090E1E
:1037B0001870597003021B0E04AA9370C2B213480A
:1037C000C9B24068DBB2050020000134A847E1B26D
:1037D0008945A6D853230020039A93424041C0B2A2
:1037E00007B0F0BCBB46B246A946A046F0BD029960
:1037F0000095B9E70299B7E798150020FFFF000090
:10380000B5150020080D0020A4150020F8B2000016
:10381000F0B54E46DE46574645460B00E0B51B78F0
:1038200091B00A9111001A019B18DEB234001134D4
:10383000E4B2221C542C00D95422D3B26F4A09930B
:103840001700127891469E4200D3C1E03300303316
:103850005B0098466A4A6B4B90440932FF320B92E8
:103860003A009B46684B09320C9307923B004A464C
:1038700047460D948846040099460EAD0692089678
:1038800008E0089B099A01330893DBB202379A4299
:1038900000D89CE0089A0B9B9B5C0A9A52781A42CB
:1038A000EFD003222800594906F0FAFA069BA342FA
:1038B00000D8A1E00023C2462600B84627000393A3
:1038C0004346424618780799514BC95DDB5D5278F3
:1038D000C01A521A83B291B249435B43C91889B2E4
:1038E0009446012900D87FE0F723FF225B0199422B
:1038F00002D84A090832D2B263460124B446049081
:103900000E00059303E00139CAB294420DD8A31802
:103910005B101800584380B2D9B28642F3D3FF2B14
:1039200064D00131CCB29442F1D9059B013C04989A
:1039300066469C46E3B25A4612790132111CFF2AB0
:1039400000D9FF213A000C3252004A445478927850
:1039500089B2120222434A430399121292B2A97009
:103960000092010062462868D047030428700002D4
:103970001B0E000E6B700137C3B2069A0393FBB2A5
:10398000A8709A429CD847463400D046039B5A46BA
:10399000D278023753431B12AB702868FFF7D4FB71
:1039A000010403020FAA090E1B0E107051709370D0
:1039B000C2B20C98DBB24668C9B20898B047089BFF
:1039C000099A01330893DBB29A4200D962E70D9C51
:1039D00053230020A3424041C0B211B0F0BCBB460B
:1039E000B246A946A046F0BDCBB2A4E7059B664609
:1039F00004989C46FF239EE70023C8E7A4150020F7
:103A0000000C002098150020F8B200009915002045
:103A1000A5150020F0B50478DE465746454623013B
:103A20004E46E418E4B22300E0B51133DBB2804621
:103A30009B4683B01F1C542B00D954271B4A01AE50
:103A400093785178D0781B020B4300041843FFF79A
:103A50007BFB0304307000021B0E000EFFB273707C
:103A6000B070A74214D9124B9946124B9A464B4656
:103A700042461B5D52781A4206D05046B3784568DC
:103A8000327820007178A8470134E3B29F42EED823
:103A900053235A46002093424041C0B203B0F0BCC9
:103AA000BB46B246A946A046F0BDC04698150020C8
:103AB000080D0020F8B20000F0B504784546DE4657
:103AC00057464E462301E418E4B22300E0B5113313
:103AD000DBB287B0804601931D1C542B00D95425BE
:103AE00003AB9A462B4B03229946591C504606F0CD
:103AF000D7F94B4603985F78FFF726FB030404AE23
:103B00001B0E73704B4630700002000EB0701B79B4
:103B1000EDB2FF1853461F700398FFF715FB05AF72
:103B20000304387000021B0E000E7B70B870AC42AC
:103B300022D2194BA9469A46184B9B4608E0200012
:103B4000BB783A787978A8470134E3B24B4513D271
:103B5000534642461B5D52781A42F5D05A46556884
:103B600001221A42EBD12000B37832787178013407
:103B7000A847E3B24B45EBD353230020019A93426D
:103B80004041C0B207B0F0BCBB46B246A946A04611
:103B9000F0BDC04698150020080D0020F8B20000C6
:103BA000F0B545465746DE464E460478E0B523015B
:103BB000E418E4B225001135EDB2804685B02F1C23
:103BC000542D00D95427234B03229A46591C02A88E
:103BD00006F066F953461B79FFB29B080093A74293
:103BE0002CD91D4B03AE99461C4B01959B464B4669
:103BF00042461B5D52781A421BD0194A6300D35CBF
:103C0000009A1B095343524652789B1802AA13701C
:103C10000298FFF799FA010403023070C2B25846C5
:103C2000090E1B0E45687170B3702000DBB2C9B27B
:103C3000A8470134E3B29F42D9D8019D5323002005
:103C4000AB424041C0B205B0F0BCBB46B246A9464B
:103C5000A046F0BD98150020080D0020F8B2000025
:103C6000610C0020F0B545465746DE464E460478C6
:103C7000E0B52301E418E4B225001135EDB2804629
:103C800085B02F1C542D00D95427234B03229A466C
:103C9000591C02A806F004F953461B79FFB29B0891
:103CA0000093A7422CD91D4B03AE99461C4B01959E
:103CB0009B464B4642461B5D52781A421BD0194A1E
:103CC0006300D35C009A5343524652785B119B18B1
:103CD00002AA13700298FFF737FA0104030230704A
:103CE000C2B25846090E1B0E45687170B3702000B1
:103CF000DBB2C9B2A8470134E3B29F42D9D8019DD3
:103D000053230020AB424041C0B205B0F0BCBB46DB
:103D1000B246A946A046F0BD98150020080D002027
:103D2000F8B20000600C0020F0B50478DE4657467B
:103D3000454623014E46E418E4B22300E0B51133B2
:103D4000DBB280469B4683B01F1C542B00D95427FE
:103D5000304D0322691C684606F0A2F82E4B2879E4
:103D60001B88C00858430012EA78FFB2C1B243066C
:103D70004AD40F230B408906284D890F4900491961
:103D80004D7809786B431B115B18DBB2000601D537
:103D90005B42DBB259B2002901DA5B42DBB25B0065
:103DA000DBB25A436B4612129A700098FFF7CCF9B7
:103DB00001AE0304307000021B0E000E7370B07071
:103DC000A74214D9164B9946164B9A464B46424683
:103DD0001B5D52781A4206D05046B3784568327857
:103DE00020007178A8470134E3B29F42EED85323F4
:103DF0005A46002093424041C0B203B0F0BCBB46DB
:103E0000B246A946A046F0BDCB430F25D9B22B4000
:103E10000133B0E798150020A0150020F0B2000093
:103E2000080D0020F8B20000F0B5C64600B5847851
:103E30000500002C25D003781A019B18DBB21F0067
:103E40001137FAB290461C00161C542A17D8F6B245
:103E5000B3420ADA1C4F6B783A5D1A4202D0200056
:103E6000FFF788F90134B442F5DB002453234246BE
:103E700093426441E4B2200080BCB846F0BD5426B1
:103E8000E5E7124B1B7910331A1CFF2B19D8104B86
:103E900092B218880A215043001280B2FCF7DAF976
:103EA00089B20029E7D105F05DFF5421FCF726FA1D
:103EB000054B6A78CB5C08001342DCD0FFF75AF957
:103EC000D9E7FF22E3E7C046080D0020981500203F
:103ED000A0150020F0B5C64600B584780500002C7A
:103EE00025D003781A019B18DBB21F001137FAB2F4
:103EF00090461C00161C542A17D8F6B2B3420ADAB0
:103F00001C4F6B783A5D1A4202D02000FFF762F92D
:103F10000134B442F5DB002453234246934264410A
:103F2000E4B2200080BCB846F0BD5426E5E7124B51
:103F30001B7910331A1CFF2B19D8104B92B218881A
:103F400005215043001280B2FCF784F989B20029A0
:103F5000E7D105F007FF5421FCF7D0F9054B6A784B
:103F6000CB5C08001342DCD0FFF734F9D9E7FF221D
:103F7000E3E7C046080D002098150020A01500209A
:103F8000F0B50478DE465746454623014E46E41810
:103F9000E4B22300E0B51133DBB280469B4683B028
:103FA0001F1C542B00D95427314D0322691C68462D
:103FB00005F076FF2F4B28791B88C0085843001264
:103FC0006A78FFB2C1B243064CD40F230B40890676
:103FD000294D890F490049194D7809786B431B1108
:103FE0005B18DBB2000601D55B42DBB259B2002997
:103FF00001DA5B42DBB25B00DBB25900CB189B09F4
:10400000D2186B461A700098FEF7ECFB01AE030461
:10401000307000021B0E000E7370B070A74214D9EE
:10402000164B9946164B9A464B4642461B5D5278B4
:104030001A4206D05046B37845683278200071782D
:10404000A8470134E3B29F42EED853235A460020DA
:1040500093424041C0B203B0F0BCBB46B246A94651
:10406000A046F0BDCB430F25D9B22B400133AEE7BC
:1040700098150020A0150020F0B20000080D0020C7
:10408000F8B20000F0B5D6464F464646441CE3B2AF
:104090004A1E494C9A46451E4B1CD2B2C0B5A44696
:1040A000EDB2DBB2070191420AD9B846E04444467A
:1040B000A65C1036B146FF2E6DD844464E46A65437
:1040C000B846E0444646765C2036B146FF2E01D91C
:1040D000FF24A14646464C4674540F2B07D867442C
:1040E000FE5C1036B046FF2E52D84446FC5454466F
:1040F000052C16D82401914208D966463719BE5CB2
:104100000D36B046FF2E49D84646BE54664637198E
:104110007E5C1036B046FF2E33D846467E540F2BB9
:1041200027D9A8421BD92D01914207D960464419CD
:10413000A05C0D30061CFF2838D8A65462465019E2
:10414000425C1032141CFF2A0ED844540F2B06D8A0
:104150006544EA5C0D32111CFF2A2AD8E954E0BC00
:10416000BA46B146A846F0BDFF2444540F2BF6D8FA
:10417000EEE76444E65C0D36371CFF2E13D8E75497
:10418000CFE7FF26B04646467E540F2BC9D8F0E74E
:10419000FF24A046A9E7FF24A1468EE7FF26B046EC
:1041A0004646BE54B2E7FF27E754BAE7FF26A654B7
:1041B000C4E7FF21E954D2E7E41100200020704752
:1041C000F0B5DE4657464E464546E0B5837887B0A3
:1041D000002B00D0B7E0654B654D98461B78002258
:1041E0000092644A01950292634A03959346009AAD
:1041F000029E9446D7B26644002B00D09DE005F0A5
:10420000B1FD5E4B984200DD97E0019AFF23150057
:10421000002413703900200004AAFFF7CFFF337881
:10422000FF2B03D004AA13540130C0B2002814D0CD
:1042300004AA12782B7892465A4652689146D02B9F
:1042400022D9D03B5800C0182F218001FCF70CF870
:10425000C1B20B00FF225046C84743460134E4B2C6
:104260001B7810351036062C20D02B78013BDBB2A2
:10427000FD2BCFD82B703900200004AAFFF79EFF3A
:104280003378FF2BCED1D1E71802D021C01AFBF72B
:10429000EBFF0023C2B200215046C8474346013419
:1042A000E4B21B7810351036062CDED1009A019945
:1042B0000132013100920191102A98D10133DBB211
:1042C000039D1C2B3CD90023424613702C4B10211C
:1042D000002405209C46FE26FF27494260356346A0
:1042E00002E001339D4209D0052815D05A5CFF2A0F
:1042F000F7D15E541F5501339D42F5D10138C0B24C
:104300001039103C0028EAD1002007B0F0BCBB46B1
:10431000B246A946A046F0BD1A78FF2A00D11E7009
:104320005A5CFF2AE5D001339D42F5D10138C0B275
:104330001039103C0028D2D1E6E70024019D94E713
:1043400042461370E0E70C4B00229B6800210020DE
:104350009847074D60220021280005F04FFD034BD0
:10436000984600234246137039E7C046AC1100203E
:10437000E4110020000C0020F8B20000545555054F
:1043800034120020F0B557464546DE464E460378C7
:10439000E0B51C011C19E4B225001135EDB28246CE
:1043A00091B02A1C602D00D96022D2B209925246E7
:1043B0009278002A0DD0644B0022002100209B68D7
:1043C0009847624B60221800002105F017FD534604
:1043D0001B78002B00D1A6E0099B26009C4200DB45
:1043E00095E05A4B584A0793594B90460A93594BBC
:1043F0000B959B46584B5F46994606213000FBF7CC
:104400007DFF0C00300025010621FBF72DFFAC4697
:10441000079B049063441B5CE0B205936B46197CD8
:104420000EAB1A000895FFF7C9FE049A7B199B5C36
:104430008346FF2B08D0010008200CAA1218535401
:104440005B460133DBB29B465B46002B4AD0059BA3
:10445000AA331A1CFF2B00D9FF2253009B180233EA
:10446000DBB20193059B0024553B0293DB4303938E
:104470003B005F469B460EAD069652462B7852781F
:104480005B440933FF331B781A4224D0039B464612
:10449000DA17029B1A4056235B429B1A0CAA137030
:1044A0004B469B7853704B46019ADB7853430CAADA
:1044B0001B1293700C98FEF747FE010403020DAA2D
:1044C000090E1B0E1070517093707668C2B2DBB289
:1044D0002878C9B2B0470134E4B20135BC42CCD12E
:1044E0005F46069E0A9B1B78002B0AD0079B089A02
:1044F0009C46059B6244591E5B42DB170B400499A6
:104500005354099B0136B34200DD76E70B9D5F23D0
:104510000020AB424041C0B211B0F0BCBB46B24635
:10452000A946A046F0BD0D4E308802F069F8182368
:1045300083429B41064A5B421370182800D84BE720
:1045400001F0FAFF308047E7F8B20000E4110020E4
:1045500044120020000C0020981500204612002074
:10456000F0B557464E46DE464546E0B587B00600F4
:104570000F001400FDF776FC00280CD0002C11D1A0
:10458000514C2378082B00D98EE003224F4B1B7827
:104590009343782B49D007B0F0BCBB46B246A9463E
:1045A000A046F0BD3900300004AAFFF707FE050061
:1045B00047483301C318DB5DFF2B03D004AA5355D2
:1045C0000135EDB2404C23785B19082B32DC002D0D
:1045D000DBD02378B846ED18EAB294460022E146D3
:1045E0009346B4463A4804A90E78E71832003032B0
:1045F0005200855C821852787D707A721A005D468E
:104600000C325200A21801337E74DBB2571C557075
:1046100001317D704B45E7D1032223702B4B664659
:104620001B7847469343782BB5D139003000FFF70C
:1046300029FDB0E708235B1B9A4609239B466B00C4
:104640001933009353465B00019311239C46AC44FD
:104650006346029308235B1BDBB2691CAB440393E4
:104660001C4B5246984601235B42434499464046C0
:10467000494405F015FC4046594652464944083025
:1046800005F00EFC40460099019A4944183005F0A7
:1046900007FC4046029952461030494405F000FCA0
:1046A0004B46039A1A7092E7082303930933029347
:1046B000013B019309330093103B9B46013B9A4613
:1046C00001210025CCE7C046B0110020981500203C
:1046D000000C0020B1110020F0B54E46DE465746D2
:1046E0004546E0B5D14B06001B788BB0834215D010
:1046F0000123CF4DCF4CA3706B7962789A4206D0DC
:104700006370CD4B0022002100209B6898472B2E20
:1047100000D94DE2C94BB6009B599F46C44DC84ACB
:104720002B7812789B079B0F9B1A5A1E9341DBB282
:10473000E0E7C44AC44B1878411E4042C017084005
:10474000C0B22100FFF764F82378013323700028FA
:1047500000D1CDE00BB0F0BCBB46B246A946A046A6
:10476000F0BD2100B94A0020FFF752F8ECE7B74A44
:10477000E0E72100B64A0020FFF74AF8E4E7B44A30
:10478000D8E72100B34A0020FFF742F8DCE7B14A3E
:10479000D0E72100B04A0020FFF73AF8D4E7AE4A4C
:1047A000C8E72000AD49FEF78BFFCDE72000AC49FC
:1047B000FEF786FFC8E72000FFF702FDC4E72000F0
:1047C000FFF7E0FDC0E7A74EA74F32683B689A426B
:1047D00000D9F4E1AB786A78E8781B02134300044F
:1047E0001843FEF7B1FC0104030209AA090E1B0ECF
:1047F000517093701070C2B29346CAB2D9B28E4B48
:1048000004975B6801929846984B47469946984BA7
:10481000884602930E235B424B449A46954A05967E
:104820000392069507944B46DC1F2500A146029E85
:104830001C000AE043465A460199B8476B78013696
:104840002B700135A54200D144E12B783078002B44
:10485000F0D1002300220021B847EFE7864B824FBA
:1048600098461A683B689A4200D9A8E1814A1388A1
:104870005902591889005B1880498C4663449BB2E1
:104880001E0AF618F6B2532E03D9543EF6B2532E32
:10489000FBD85902591889005B1878498C46634443
:1048A00077499BB21380715C6078084200D18EE139
:1048B000614949688946190AC918890700D48AE1FB
:1048C0000023002200213000C8472A791032131C2F
:1048D000FF2A00D9FF23FA209BB219094000FBF7F9
:1048E000C3FC3B68C018434618602378013323702B
:1048F0000222644B1A702DE720006349FEF7C0FDC9
:1049000022E720006149FEF7BBFD1DE72000FFF70D
:1049100037FB19E72000FFF7DDFA15E72000FFF766
:1049200083FA11E720005A49FEF71AFE0CE720002F
:104930005849FEF715FE07E720005749FEF710FE1D
:1049400002E720005549FEF769FCFDE620005449C6
:10495000FEF718FDF8E620005249FEF713FDF3E6D6
:1049600020005149FEF75AFCEEE620004F49FEF7C1
:1049700087FDE9E620004E49FEF782FDE4E62000CF
:104980004C49FEF77DFDDFE620004B49FEF778FD40
:10499000DAE620004949FEF741FCD5E62000484907
:1049A000FEF73CFCD0E620004649FEF7EBFCCBE6E8
:1049B00020004549FEF7E6FCC6E620004349FEF725
:1049C0005FFDC1E620004249FEF75AFDBCE620002B
:1049D000FFF7AAF9B8E62000FFF744F9B4E6200093
:1049E000FFF7DEF8B0E62000FFF766F8ACE620003F
:1049F000FFF710F8A8E6A378002B00D1E3E00E4BF8
:104A000000229B68002100209847237801332370FF
:104A1000A378002B00D06BE703221A4B1A7099E69B
:104A20002100084A0020FEF7F3FE8DE66F0D0020FE
:104A3000981500206C0D0020F8B2000040B2000074
:104A4000700D0020892D0000A4150020412D0000CC
:104A5000C52C0000512C00000D2C0000DD2B0000A7
:104A6000AD2B0000A4110020A01500204B11002048
:104A7000000C0020720D0020A81100201936000043
:104A8000080D0020680D0020652B0000B5300000E7
:104A9000012B0000B52A0000692A0000C12E000089
:104AA000552E0000D5290000A5290000512900003D
:104AB00019290000E5280000C1280000B12F0000DE
:104AC00029300000352F0000C92D000069280000A2
:104AD00011280000230056464C46029D994609E0E5
:104AE00043465A460199B847A37B013C2374013DD4
:104AF000B44208D0E37BE87B002BF1D100230022F5
:104B00000021B847F0E7029BB246187A4B465B7823
:104B1000002B48D043465A460199B847029BD879A2
:104B20004B461B78002B39D043465A460199B8476B
:104B300003990B885A029A1892009B183C4A944693
:104B400063449BB21A0A0B80D318032213405A42C3
:104B500053414A46DBB21370537010239C46029BAC
:104B6000E14410330293334BE244994500D05AE6B6
:104B7000069D049F2A79059E1032079C131CFF2A6C
:104B800000D9FF239BB219092B48FBF76DFB3B684B
:104B9000C0182378306001332370A9E60023002277
:104BA0000021B847C4E7002300220021B847B5E739
:104BB0000222237801332370204B1A70CAE5237830
:104BC0000133237094E623780133237024E723789C
:104BD00001332370BEE55902591889005B18144946
:104BE00008A88C4663449BB2190AC918017059027F
:104BF000591889005B1863449BB213801A0AD318B2
:104C0000DBB25B087F334370EB7883700898FEF764
:104C10009BFA0104030209AA090E1B0E10705170C1
:104C20009370C9B2C2B2DBB23000C8474DE6C0468D
:104C300019360000AB110020B80B0000680D0020F1
:104C40007047C0467047C0467047C0467047C04670
:104C5000F8B5DE464E4657464546554CE0B5206809
:104C600001F002FD834601F099FC524981460E781D
:104C70002060002E2CD05B464F483500C01A002320
:104C80009846FF3300249C460CE05B449FB2BA4632
:104C900067463B405370534601341B0A9370E3B29E
:104CA0009E4211D922000C3252008A18937857780C
:104CB0001B023B438342E8D9012301349846013D5E
:104CC000E3B2EDB29E42EDD84346002B00D00D700A
:104CD0003A4B00251B78002B06D103221500384BD8
:104CE0001B781D401A4228D1364C2378022B29D03C
:104CF000022B0CD8002B33D02800FFF7EDFC002D41
:104D00003AD1F0BCBB46B246A946A046F8BD032B3B
:104D1000F7D12D4D2B78002B06D008221C212848D6
:104D2000FDF72AFC00232B70284B186801F09CFC2F
:104D30000F28E6D900232370E3E7224C9D0823784F
:104D4000022BD5D1224B234A1D701D4B1B789B078C
:104D50009B0F1370204BDB68984703232370D0E729
:104D60001E4A1F4813704A46184B1A60292205F044
:104D700097F801232370C4E7FFF762FFFFF762FF94
:104D8000164B1B781A019B18DBB21D00113DEDB2CA
:104D90001C1C542B09D8E4B221002800FFF754FF53
:104DA00021002800FFF752FFABE75424F3E7C04689
:104DB000DC110020B0110020FFFF0000E0110020F6
:104DC00098150020680D0020AD110020A0150020CE
:104DD0006F0D0020700D0020F8B200006C0D002057
:104DE000A415002070B50024234B1B689847234866
:104DF0001022FF210470193005F000F8204810221D
:104E0000FF210470193004F0F9FFFCF7D7FF051EED
:104E10000CD01C4C1C4E002508221C212000FDF744
:104E200023FC23783570032B15D970BDFCF7B8FF30
:104E30003523144C03221549601C237005F030F80B
:104E4000812308225B421C212000A380FDF794FBF4
:104E50000D4E3570DFE7352303220C49601C2370AB
:104E600005F01EF8812308225B421C212000A3804C
:104E7000FDF782FB3570D8E7F8B20000A4150020DA
:104E8000B011002098150020AD11002080AC00006A
:104E900070B5041E0C4D02D02E78002E01D02C705F
:104EA00070BD0020FFF718FC084B094A1E70094B23
:104EB0001B789B079B0F1370074BDB6898470322F7
:104EC000064B1A70EBE7C046E01100206F0D002082
:104ED000700D002098150020F8B20000680D002029
:104EE0000121064B1A784A401A700022044B1A70AE
:104EF000044A13780B4313707047C046981500207E
:104F0000680D0020AD1100200D490B789B0710D0D3
:104F1000012300280ED19A0003230878034013438D
:104F200000220B700121074B1A70074A13780B43BC
:104F3000137070472A332B28EDD814330340EAE767
:104F400098150020680D0020AD1100200C4A10B506
:104F500013789B0801332B2B00D901230320040075
:104F600011780C4008420AD09B001C4314700022A8
:104F70000121044B1A70044A13780B43137010BDBF
:104F800098150020680D0020AD1100200F4A1378FD
:104F90009B08013BDBB2002B00D12B331178890732
:104FA00010D0191C2B2B0ED8032310788900034036
:104FB0000B43137000220121054B1A70054A137828
:104FC0000B43137070472B21EEE7C0469815002065
:104FD000680D0020AD110020064B1A78920707D00B
:104FE00001215A7808325A70034A13780B43137020
:104FF0007047C04698150020AD110020064B1A7866
:10500000920707D001215A78083A5A70034A137858
:105010000B4313707047C04698150020AD11002057
:10502000084B1A7892070AD09A781032111CFF2A7E
:1050300006D899700121044A13780B431370704706
:10504000FF21F6E798150020AD110020074A1378DC
:105050009B070AD091781039CB43DB170B40012115
:105060009370034A13780B43137070479815002010
:10507000AD110020084B1A7892070AD0DA78103266
:10508000111CFF2A06D8D9700121044A13780B435A
:1050900013707047FF21F6E798150020AD1100202E
:1050A000074A13789B070AD0D1781039CB43DB1716
:1050B0000B400121D370034A13780B4313707047E0
:1050C00098150020AD110020064A13791033191CE1
:1050D000FF2B00D9FF2111710121034A13780B43E3
:1050E0001370704798150020AD11002006490A7909
:1050F000103AD343DB1713400B710121034A137895
:105100000B4313707047C04698150020AD11002066
:105110007047C0468E4BF0B5464698468D4B8E4A3A
:10512000D6464F469C468D4B15009A46C0B58C49D5
:105130008C4C8D4E10350B68A34200D997E0B342DA
:1051400000D9A4E0894FB94699444F460F2F11D892
:10515000874FB9464B440E2B00D9F3E057469B00CE
:10516000FB589F46B0230127C754A8230227C750E6
:105170009B3B137001320431AA42DCD1E0BCBA4639
:10518000B146A846F0BDA4230127C7549C2302279B
:10519000C750903B1370EDE798230127C754902325
:1051A0000227C750853B1370E4E78C230127C754BF
:1051B00084230227C7507A3B1370DBE78023012743
:1051C000C7540223836707331370D3E7742301277F
:1051D000C7540223C36606331370CBE76823012745
:1051E000C7540223036605331370C3E72C2301273A
:1051F000C754022343621370BCE720230127C7541E
:1052000002238361013B1370B4E7BC230127C75419
:10521000B4230227C750A63B1370ABE7C82301276E
:10522000C754C0230227C750B13B1370A2E75C23C9
:105230000127C75402234365043313709AE75023B0
:105240000127C754022383640333137092E7442376
:105250000127C7540223C363023313708AE738233C
:105260000127C754022303630133137082E7414FC0
:10527000B94699444F460F2F00D97BE73E4FB946B8
:105280004B440E2BA2D847469B00FB589F463B4FF2
:10529000B9464B440E2B4DD867469B00FB589F46A2
:1052A000942301275B00C754902302275B00C7505B
:1052B0000A3BFF3B13705DE78E2301275B00C75459
:1052C0008A2302275B00C750FE3B137052E78823F6
:1052D00001275B00C754842302275B00C750F33BC0
:1052E000137047E7822301275B00C754FC23022782
:1052F000C750E83B13703DE7F8230127C754F0235C
:105300000227C750DD3B137034E7EC230127C75455
:10531000E4230227C750D23B13702BE7E023012779
:10532000C754D8230227C750C73B137022E7D423A2
:105330000127C754CC230227C750BC3B137019E781
:10534000012303750223C3600023137012E7C046D4
:1053500044B3000080B300004C12002008B30000EA
:10536000BCB300000F600440FF5F044000C0FBBFFF
:10537000FFBFFBBF0080FBBFFF7FFBBFFF9FFBBFEB
:10538000F0B5DE4657464E464546E0B53D4B85B046
:1053900001933D4B834602933C4B00249A463C4B81
:1053A0003C4E3D4D039316E001221A70012958D05E
:1053B00002293CD00122337858469A405B46DB688C
:1053C00013435A46D36031784A4603F0F1FF013463
:1053D0000136102C3CD0019A029B94461B781B018D
:1053E00063441A5D53009918691889788946002921
:1053F00002D05146012008709918695C884600293E
:1054000002D05146012008709B18EB185F78039B6F
:1054100003211878FAF71EFF5346C9B2002FC3D1F3
:105420001B7801291BD0022929D1002BCFD00122C2
:10543000337858469A405B46DB68013413435A463A
:10544000D36031783A0003F0B3FF0136102CC2D19B
:1054500005B0F0BCBB46B246A946A046F0BD002B45
:10546000B5D00122337858469A405B46DB68134337
:105470005A46D3603178424603F09AFFA7E7002BE3
:10548000A5D097E7000C0020491200204812002008
:105490004A1200204C120020D0150020F0B5D6464C
:1054A0004F464646C0B5050002F06EFD304B1878F9
:1054B0009A460130C0B2187011284AD900235246CA
:1054C00013702C4B99461C78052C02D900234A46B0
:1054D000137072B6284B0F211E0098461A00012443
:1054E0004836270008CA18000B409F40884387624F
:1054F000B242F6D1214C224F2600103621783800D6
:10550000013402F02FFDA642F8D14B461D48197810
:10551000FAF7DAFF2800FFF733FF1B4B1B78002B4D
:105520000BD0534642461B789B00D2580F231100E4
:105530009943134001229A404A6262B6134AAB690A
:1055400028005A6002F01AFDE0BCBA46B146A846EF
:10555000F0BD084B032199461C78FAF77BFEC9B2CF
:105560000229B1D14B460134E4B21C70ACE7C0460D
:105570004A12002049120020FCB300004C12002007
:10558000641800207C15002048120020FFFF000056
:10559000F8B548234746CE469946473B80B59846DE
:1055A0000F27114DA94410CD062226003C40BE43D2
:1055B0002100300003F06EF84346A340B3624D452E
:1055C000F1D10A4D2800FFF7A5FD094C2900200064
:1055D00002F0BAFC074B2000AB6002F0CFFCC0BC6D
:1055E000B946B046F8BDC046FCB30000740D0020BB
:1055F000641800209D54000030B5044D440020186C
:105600002C002D186970AB70225430BDD0150020CD
:10561000054B10B51C00FC3458709A701970033398
:10562000A342F9D110BDC046D015002010B5002806
:1056300001D0904710BD8847FCE7C04610B58B7875
:105640000400002B01D1012010BDFCF713FA222326
:105650001840354B9C420CD8344B9C42F3D9344B08
:105660009C466444A4B2122C59D8324BA4001B5956
:105670009F46314BE018431E9841C0B2E4E72F4AE1
:105680002F49FFF7D3FF0020DEE71220FFF73CFC95
:105690000020D9E72A4A2949FFF7C8FF0020D3E7AD
:1056A000284A2949FFF7C2FF0020CDE7264A2549AD
:1056B000FFF7BCFF0020C7E7244A2549FFF7B6FFE4
:1056C0000020C1E7224A2149FFF7B0FF0020BBE7D5
:1056D000204A2149FFF7AAFF0020B5E71E4A1D49CD
:1056E000FFF7A4FF0020AFE71C4A1D49FFF79EFF0C
:1056F0000020A9E71A4A1949FFF798FF0020A3E7FD
:105700000120FFF701FC00209EE70520FFF7FCFBCE
:10571000002099E70D20FFF7F7FB002094E7FFF743
:10572000DFFB002090E7C046D55C0000C15C0000B4
:105730003DA3FFFF44B40000A3A2FFFF8D4F000074
:105740004D4F0000FD4F0000D94F00004D500000AC
:1057500021500000A150000075500000ED500000E5
:10576000C950000010B52320FCF7E6FE242801D024
:10577000002010BD2420FCF7DFFE0128F8D12430E2
:10578000FCF7DAFE033843425841C0B2F1E7C046A5
:1057900010B500280CD024212320FCF70BFF012199
:1057A0002420FCF707FF03212520FCF703FF10BD91
:1057B000FF212320FCF7FEFEFF212420FCF7FAFE48
:1057C000FF21F1E77047C04610B5FF212320FCF709
:1057D000F1FEFF212420FCF7EDFEFF212520FCF740
:1057E000E9FE00212620FCF7E5FE00F0DFFA00F0DC
:1057F000CFFB24212320FCF7DDFE01212420FCF730
:10580000D9FE03212520FCF7D5FE10BD10B5FFF70A
:10581000D9FF2320FCF790FE242802D0FFF7D4FF05
:1058200010BD2420FCF788FE0128F7D12430FCF7B6
:1058300083FE0328F2D1F3E710B50300887800282F
:1058400013D0184A9A180F2A23D9174A934226D000
:10585000164A934208D10220FBF79EFC0120032246
:105860000221FAF7EDFE002010BD0F4A934204D04A
:105870000E4A93420BD00120F6E70120FBF79CFC77
:10588000012003220221FAF7DBFE0020ECE70220D0
:10589000F4E7123BD8B200F089FB0020E4E70120D6
:1058A000DAE7C046EEA0FFFF105F0000115F0000C6
:1058B000FF2303707047C046F8B5037804000D005D
:1058C000132B03D8524A9B00D3589F46FF232370C3
:1058D0002900200001F03CFAF8BD4378C178021D90
:1058E00080780002184340BA80B200F0BBFAEFE7BC
:1058F0000023437009338370EAE74378022B6FD0AB
:10590000032B76D0012B0CD100F048FE030EA370C0
:10591000030CE370030A23716071D9E74378022B0B
:105920004ED029002000FFF7C3FFD1E7C27881786D
:10593000407800F011FA030A23716071C8E74379D7
:1059400002791B0213435BBAC27881789BB240781C
:1059500000F018FABCE700F029FAB9E700F0CEFA37
:105960006070B5E700F0CCFA030A6370A070AFE78F
:105970004378C178021D80780002184340BA80B293
:1059800000F0C0FAA4E74378C178021D80780002D5
:10599000184340BA80B200F0D9FA99E700F0F8FA5B
:1059A00096E700F0D7F9607092E74378C178021D5E
:1059B00080780002184340BA80B200F02BFA87E7E3
:1059C000C278837812021A43037941791B04134386
:1059D0000906194309BA2620C9B2FCF7EBFD77E79F
:1059E0002620FCF7A9FD00236071A370E3702371EA
:1059F0006EE70026871C3000FAF704FD0136030A23
:105A0000F6B23B7078700237062EF4D160E7C046DC
:105A100090B5000070B504008878002819D0894B33
:105A20009C4218D8884B9C4200D9B8E0874BE318B9
:105A3000132B0FD8FCF7DEF9854B864D9C4664444A
:105A4000A4B22880122C00D9F6E0834BA4001B5985
:105A50009F46012070BD814B9C42FBD1FCF7CAF9E7
:105A60000123C206D20F5A4001231340EF22794985
:105A70001B0108801040184308700888FCF7C6F91D
:105A8000FBF7CEFA0020E5E70C222B7893432B702E
:105A90002888F3E7FBF7C4FA7F232A7813402B709A
:105AA0002888EBE740222B7893432B702888E5E782
:105AB00020222B7893432B702888DFE710222B7845
:105AC00093432B702888D9E708222B7893432B70B7
:105AD0002888D3E704222B7893432B702888CDE7BE
